{
  "contractName": "RealMathTester",
  "abi": [
    {
      "constant": true,
      "inputs": [
        {
          "internalType": "uint216",
          "name": "num",
          "type": "uint216"
        },
        {
          "internalType": "uint216",
          "name": "den",
          "type": "uint216"
        },
        {
          "internalType": "uint256",
          "name": "exp",
          "type": "uint256"
        }
      ],
      "name": "power",
      "outputs": [
        {
          "internalType": "uint256",
          "name": "",
          "type": "uint256"
        }
      ],
      "payable": false,
      "stateMutability": "pure",
      "type": "function"
    },
    {
      "constant": true,
      "inputs": [
        {
          "internalType": "uint216",
          "name": "num",
          "type": "uint216"
        },
        {
          "internalType": "uint216",
          "name": "den",
          "type": "uint216"
        }
      ],
      "name": "fraction",
      "outputs": [
        {
          "internalType": "uint256",
          "name": "",
          "type": "uint256"
        }
      ],
      "payable": false,
      "stateMutability": "pure",
      "type": "function"
    }
  ],
  "bytecode": "0x608060405234801561001057600080fd5b50610230806100206000396000f3fe608060405234801561001057600080fd5b50600436106100365760003560e01c8063c92f92271461003b578063f27be26a14610083575b600080fd5b6100716004803603606081101561005157600080fd5b506001600160d81b038135811691602081013590911690604001356100b1565b60408051918252519081900360200190f35b6100716004803603604081101561009957600080fd5b506001600160d81b03813581169160200135166100e4565b60006100dc826100d06001600160d81b0387168663ffffffff61010616565b9063ffffffff61012916565b949350505050565b60006100ff6001600160d81b0384168363ffffffff61010616565b9392505050565b60006100ff6001600160d81b03808516650100000000009081029185160261017c565b60008282650100000000005b8115610173578160011660011415610154576101518184610197565b90505b60019190911c90811561016e5761016b8384610197565b92505b610135565b95945050505050565b6000816501000000000084028161018f57fe5b049392505050565b6000828202828482816101a657fe5b04146101f1576040805162461bcd60e51b81526020600482015260156024820152745265616c4d617468206d756c206f766572666c6f7760581b604482015290519081900360640190fd5b60281c939250505056fea265627a7a7231582084c43b0f7221a4e6fbaf2a782597b2e99362739bfc1f7e4a32feb02c48c90d7964736f6c63430005110032",
  "source": "pragma solidity 0.5.17;\n\nimport \"../libs/RealMath.sol\";\n\n\ncontract RealMathTester {\n    using RealMath for uint216;\n    using RealMath for uint256;\n\n    function power(uint216 num, uint216 den, uint256 exp) public pure returns(uint256) {\n        return (num.fraction(den)).pow(exp);\n    }\n\n    function fraction(uint216 num, uint216 den) public pure returns(uint256) {\n        return num.fraction(den);\n    }\n}\n",
  "sourcePath": "/Users/oren/daostack/infra/contracts/test/RealMathTester.sol",
  "compiler": {
    "name": "solc",
    "version": "0.5.17+commit.d19bba13.Emscripten.clang"
  },
  "schemaVersion": "3.0.23",
  "updatedAt": "2020-07-30T13:07:50.448Z",
  "devdoc": {
    "methods": {}
  },
  "userdoc": {
    "methods": {}
  }
}