{
  "_format": "hh-sol-artifact-1",
  "contractName": "GenericSchemeMultiCall",
  "sourceName": "contracts/schemes/GenericSchemeMultiCall.sol",
  "abi": [
    {
      "anonymous": false,
      "inputs": [
        {
          "indexed": true,
          "internalType": "address",
          "name": "_avatar",
          "type": "address"
        },
        {
          "indexed": true,
          "internalType": "bytes32",
          "name": "_proposalId",
          "type": "bytes32"
        },
        {
          "indexed": false,
          "internalType": "bytes[]",
          "name": "_callsData",
          "type": "bytes[]"
        },
        {
          "indexed": false,
          "internalType": "uint256[]",
          "name": "_values",
          "type": "uint256[]"
        },
        {
          "indexed": false,
          "internalType": "string",
          "name": "_descriptionHash",
          "type": "string"
        },
        {
          "indexed": false,
          "internalType": "address[]",
          "name": "_contractsToCall",
          "type": "address[]"
        }
      ],
      "name": "NewMultiCallProposal",
      "type": "event"
    },
    {
      "anonymous": false,
      "inputs": [
        {
          "indexed": true,
          "internalType": "address",
          "name": "_avatar",
          "type": "address"
        },
        {
          "indexed": true,
          "internalType": "bytes32",
          "name": "_proposalId",
          "type": "bytes32"
        },
        {
          "indexed": false,
          "internalType": "address",
          "name": "_contractToCall",
          "type": "address"
        },
        {
          "indexed": false,
          "internalType": "bytes",
          "name": "_callData",
          "type": "bytes"
        },
        {
          "indexed": false,
          "internalType": "bytes",
          "name": "_callDataReturnValue",
          "type": "bytes"
        }
      ],
      "name": "ProposalCallExecuted",
      "type": "event"
    },
    {
      "anonymous": false,
      "inputs": [
        {
          "indexed": true,
          "internalType": "address",
          "name": "_avatar",
          "type": "address"
        },
        {
          "indexed": true,
          "internalType": "bytes32",
          "name": "_proposalId",
          "type": "bytes32"
        }
      ],
      "name": "ProposalDeleted",
      "type": "event"
    },
    {
      "anonymous": false,
      "inputs": [
        {
          "indexed": true,
          "internalType": "address",
          "name": "_avatar",
          "type": "address"
        },
        {
          "indexed": true,
          "internalType": "bytes32",
          "name": "_proposalId",
          "type": "bytes32"
        }
      ],
      "name": "ProposalExecuted",
      "type": "event"
    },
    {
      "anonymous": false,
      "inputs": [
        {
          "indexed": true,
          "internalType": "address",
          "name": "_avatar",
          "type": "address"
        },
        {
          "indexed": true,
          "internalType": "bytes32",
          "name": "_proposalId",
          "type": "bytes32"
        },
        {
          "indexed": false,
          "internalType": "int256",
          "name": "_param",
          "type": "int256"
        }
      ],
      "name": "ProposalExecutedByVotingMachine",
      "type": "event"
    },
    {
      "constant": true,
      "inputs": [],
      "name": "avatar",
      "outputs": [
        {
          "internalType": "contract Avatar",
          "name": "",
          "type": "address"
        }
      ],
      "payable": false,
      "stateMutability": "view",
      "type": "function"
    },
    {
      "constant": true,
      "inputs": [
        {
          "internalType": "contract IERC20",
          "name": "_stakingToken",
          "type": "address"
        },
        {
          "internalType": "bytes32",
          "name": "_proposalId",
          "type": "bytes32"
        }
      ],
      "name": "balanceOfStakingToken",
      "outputs": [
        {
          "internalType": "uint256",
          "name": "",
          "type": "uint256"
        }
      ],
      "payable": false,
      "stateMutability": "view",
      "type": "function"
    },
    {
      "constant": false,
      "inputs": [
        {
          "internalType": "uint256",
          "name": "_amount",
          "type": "uint256"
        },
        {
          "internalType": "address",
          "name": "_beneficiary",
          "type": "address"
        },
        {
          "internalType": "bytes32",
          "name": "_proposalId",
          "type": "bytes32"
        }
      ],
      "name": "burnReputation",
      "outputs": [
        {
          "internalType": "bool",
          "name": "",
          "type": "bool"
        }
      ],
      "payable": false,
      "stateMutability": "nonpayable",
      "type": "function"
    },
    {
      "constant": false,
      "inputs": [
        {
          "internalType": "bytes32",
          "name": "_proposalId",
          "type": "bytes32"
        }
      ],
      "name": "execute",
      "outputs": [],
      "payable": false,
      "stateMutability": "nonpayable",
      "type": "function"
    },
    {
      "constant": false,
      "inputs": [
        {
          "internalType": "bytes32",
          "name": "_proposalId",
          "type": "bytes32"
        },
        {
          "internalType": "int256",
          "name": "_decision",
          "type": "int256"
        }
      ],
      "name": "executeProposal",
      "outputs": [
        {
          "internalType": "bool",
          "name": "",
          "type": "bool"
        }
      ],
      "payable": false,
      "stateMutability": "nonpayable",
      "type": "function"
    },
    {
      "constant": true,
      "inputs": [
        {
          "internalType": "bytes32",
          "name": "_proposalId",
          "type": "bytes32"
        }
      ],
      "name": "getTotalReputationSupply",
      "outputs": [
        {
          "internalType": "uint256",
          "name": "",
          "type": "uint256"
        }
      ],
      "payable": false,
      "stateMutability": "view",
      "type": "function"
    },
    {
      "constant": false,
      "inputs": [
        {
          "internalType": "contract Avatar",
          "name": "_avatar",
          "type": "address"
        },
        {
          "internalType": "contract IntVoteInterface",
          "name": "_votingMachine",
          "type": "address"
        },
        {
          "internalType": "bytes32",
          "name": "_voteParams",
          "type": "bytes32"
        },
        {
          "internalType": "contract SchemeConstraints",
          "name": "_schemeConstraints",
          "type": "address"
        }
      ],
      "name": "initialize",
      "outputs": [],
      "payable": false,
      "stateMutability": "nonpayable",
      "type": "function"
    },
    {
      "constant": false,
      "inputs": [
        {
          "internalType": "uint256",
          "name": "_amount",
          "type": "uint256"
        },
        {
          "internalType": "address",
          "name": "_beneficiary",
          "type": "address"
        },
        {
          "internalType": "bytes32",
          "name": "_proposalId",
          "type": "bytes32"
        }
      ],
      "name": "mintReputation",
      "outputs": [
        {
          "internalType": "bool",
          "name": "",
          "type": "bool"
        }
      ],
      "payable": false,
      "stateMutability": "nonpayable",
      "type": "function"
    },
    {
      "constant": true,
      "inputs": [
        {
          "internalType": "bytes32",
          "name": "",
          "type": "bytes32"
        }
      ],
      "name": "proposals",
      "outputs": [
        {
          "internalType": "bool",
          "name": "exist",
          "type": "bool"
        },
        {
          "internalType": "bool",
          "name": "passed",
          "type": "bool"
        }
      ],
      "payable": false,
      "stateMutability": "view",
      "type": "function"
    },
    {
      "constant": true,
      "inputs": [
        {
          "internalType": "address",
          "name": "",
          "type": "address"
        },
        {
          "internalType": "bytes32",
          "name": "",
          "type": "bytes32"
        }
      ],
      "name": "proposalsInfo",
      "outputs": [
        {
          "internalType": "uint256",
          "name": "blockNumber",
          "type": "uint256"
        },
        {
          "internalType": "contract Avatar",
          "name": "avatar",
          "type": "address"
        }
      ],
      "payable": false,
      "stateMutability": "view",
      "type": "function"
    },
    {
      "constant": false,
      "inputs": [
        {
          "internalType": "address[]",
          "name": "_contractsToCall",
          "type": "address[]"
        },
        {
          "internalType": "bytes[]",
          "name": "_callsData",
          "type": "bytes[]"
        },
        {
          "internalType": "uint256[]",
          "name": "_values",
          "type": "uint256[]"
        },
        {
          "internalType": "string",
          "name": "_descriptionHash",
          "type": "string"
        }
      ],
      "name": "proposeCalls",
      "outputs": [
        {
          "internalType": "bytes32",
          "name": "proposalId",
          "type": "bytes32"
        }
      ],
      "payable": false,
      "stateMutability": "nonpayable",
      "type": "function"
    },
    {
      "constant": true,
      "inputs": [
        {
          "internalType": "address",
          "name": "_owner",
          "type": "address"
        },
        {
          "internalType": "bytes32",
          "name": "_proposalId",
          "type": "bytes32"
        }
      ],
      "name": "reputationOf",
      "outputs": [
        {
          "internalType": "uint256",
          "name": "",
          "type": "uint256"
        }
      ],
      "payable": false,
      "stateMutability": "view",
      "type": "function"
    },
    {
      "constant": true,
      "inputs": [],
      "name": "schemeConstraints",
      "outputs": [
        {
          "internalType": "contract SchemeConstraints",
          "name": "",
          "type": "address"
        }
      ],
      "payable": false,
      "stateMutability": "view",
      "type": "function"
    },
    {
      "constant": false,
      "inputs": [
        {
          "internalType": "contract IERC20",
          "name": "_stakingToken",
          "type": "address"
        },
        {
          "internalType": "address",
          "name": "_beneficiary",
          "type": "address"
        },
        {
          "internalType": "uint256",
          "name": "_amount",
          "type": "uint256"
        },
        {
          "internalType": "bytes32",
          "name": "_proposalId",
          "type": "bytes32"
        }
      ],
      "name": "stakingTokenTransfer",
      "outputs": [
        {
          "internalType": "bool",
          "name": "",
          "type": "bool"
        }
      ],
      "payable": false,
      "stateMutability": "nonpayable",
      "type": "function"
    },
    {
      "constant": true,
      "inputs": [],
      "name": "voteParams",
      "outputs": [
        {
          "internalType": "bytes32",
          "name": "",
          "type": "bytes32"
        }
      ],
      "payable": false,
      "stateMutability": "view",
      "type": "function"
    },
    {
      "constant": true,
      "inputs": [],
      "name": "votingMachine",
      "outputs": [
        {
          "internalType": "contract IntVoteInterface",
          "name": "",
          "type": "address"
        }
      ],
      "payable": false,
      "stateMutability": "view",
      "type": "function"
    }
  ],
  "bytecode": "0x608060405234801561001057600080fd5b50612892806100206000396000f3fe608060405234801561001057600080fd5b50600436106101005760003560e01c80639d4c162d11610097578063d29b5d2f11610066578063d29b5d2f14610216578063e5e2116414610229578063e751f27114610231578063f81f8bf61461024457610100565b80639d4c162d146101bb578063a31ee5b0146101db578063b551c373146101f0578063bea75f281461020357610100565b80635aef7de6116100d35780635aef7de61461016c57806360bdbb3f146101745780636b8eb403146101955780639588378e146101a857610100565b806322499a65146101055780632d3525491461012e57806332ed5b12146101435780633edf7ca114610164575b600080fd5b610118610113366004611afb565b610257565b6040516101259190612545565b60405180910390f35b61013661053b565b6040516101259190612553565b610156610151366004611c21565b61054a565b60405161012592919061252a565b61013661056b565b61013661057a565b610187610182366004611ac1565b610589565b6040516101259291906126ab565b6101186101a3366004611d26565b6105b3565b6101186101b6366004611ac1565b61066d565b6101ce6101c9366004611c5d565b6108e9565b604051610125919061251c565b6101ee6101e9366004611c7c565b610a74565b005b6101186101fe366004611c21565b610b08565b6101ce610211366004611cd1565b610d80565b6101ce610224366004611d63565b610ef8565b61011861106d565b6101ee61023f366004611c21565b611073565b6101ce610252366004611d63565b6114ee565b60008351855114801561026b575082518551145b6102905760405162461bcd60e51b8152600401610287906125fb565b60405180910390fd5b6005546001600160a01b031615610348576005546004805460405163da6f0d9b60e01b81526001600160a01b039384169363da6f0d9b936102da938b938b938b9392169101612444565b602060405180830381600087803b1580156102f457600080fd5b505af1158015610308573d6000803e3d6000fd5b505050506040513d601f19601f8201168201806040525061032c9190810190611bbb565b6103485760405162461bcd60e51b8152600401610287906125cb565b6002805460035460048054604051634439bdaf60e11b81526001600160a01b03948516956388737b5e956103859591949193339391169101612596565b602060405180830381600087803b15801561039f57600080fd5b505af11580156103b3573d6000803e3d6000fd5b505050506040513d601f19601f820116820180604052506103d79190810190611c3f565b6040805160a0810182528781526020808201889052818301879052600160608301819052600060808401819052858152908252929092208151805194955091939092610427928492910190611605565b506020828101518051610440926001850192019061166a565b506040820151805161045c9160028401916020909101906116c3565b5060608201516003909101805460809093015115156101000261ff001992151560ff199094169390931791909116919091179055604080518082018252438152600480546001600160a01b03908116602080850191825260025483166000908152808252868120888252909152859020935184555160019390930180549382166001600160a01b0319909416939093179092555491518392909116907ff5a0655bd7247f3a6fa97e71b57c61314566afb5aa8be8eea2c48f4d1b9bf1909061052b908890889088908c906124c5565b60405180910390a3949350505050565b6005546001600160a01b031681565b60016020526000908152604090206003015460ff8082169161010090041682565b6002546001600160a01b031681565b6004546001600160a01b031681565b6000602081815292815260408082209093529081522080546001909101546001600160a01b031682565b336000908152602081815260408083208484529091528120600101546001600160a01b0316806105e7576000915050610667565b6040516370a0823160e01b81526001600160a01b038516906370a0823190610613908490600401612387565b60206040518083038186803b15801561062b57600080fd5b505afa15801561063f573d6000803e3d6000fd5b505050506040513d601f19601f820116820180604052506106639190810190611c3f565b9150505b92915050565b336000908152602081815260408083208484528252808320600101548151638da5cb5b60e01b8152915185936001600160a01b03909216928392638da5cb5b92600480840193829003018186803b1580156106c757600080fd5b505afa1580156106db573d6000803e3d6000fd5b505050506040513d601f19601f820116820180604052506106ff9190810190611aa3565b6001600160a01b0316639be2faed30836040518363ffffffff1660e01b815260040161072c929190612395565b60206040518083038186803b15801561074457600080fd5b505afa158015610758573d6000803e3d6000fd5b505050506040513d601f19601f8201168201806040525061077c9190810190611bbb565b6107985760405162461bcd60e51b81526004016102879061266b565b6107a061170a565b5033600090815260208181526040808320878452825291829020825180840190935280548352600101546001600160a01b03169082018190526107e75760009350506108e1565b80602001516001600160a01b03166389ae1c906040518163ffffffff1660e01b815260040160206040518083038186803b15801561082457600080fd5b505afa158015610838573d6000803e3d6000fd5b505050506040513d601f19601f8201168201806040525061085c9190810190611d45565b815160405163277166bf60e11b81526001600160a01b039290921691634ee2cd7e9161088d918a9190600401612429565b60206040518083038186803b1580156108a557600080fd5b505afa1580156108b9573d6000803e3d6000fd5b505050506040513d601f19601f820116820180604052506108dd9190810190611c3f565b9350505b505092915050565b3360009081526020818152604080832085845290915281206001015483906001600160a01b031661092c5760405162461bcd60e51b81526004016102879061264b565b6000848152600160205260409020600381015460ff1661095e5760405162461bcd60e51b81526004016102879061262b565b6003810154610100900460ff16156109885760405162461bcd60e51b81526004016102879061261b565b83600114156109a75760038101805461ff001916610100179055610a22565b6000858152600160205260408120906109c08282611721565b6109ce600183016000611742565b6109dc600283016000611721565b50600301805461ffff1916905560045460405186916001600160a01b0316907f6bc0cb9e9967b59a69ace442598e1df4368d38661bd5c0800fbcbc9fe855fbbe90600090a35b60045460405186916001600160a01b0316907f25d4c89430c1f10c60c292556941e3e624ec1ec04972a5da46cee1b352429cbe90610a61908890612545565b60405180910390a3506001949350505050565b6004546001600160a01b031615610a9d5760405162461bcd60e51b81526004016102879061260b565b6001600160a01b038416610ac35760405162461bcd60e51b8152600401610287906125eb565b600480546001600160a01b039586166001600160a01b031991821617909155600280549486169482169490941790935560039190915560058054919093169116179055565b336000908152602081815260408083208484528252808320600101548151638da5cb5b60e01b8152915185936001600160a01b03909216928392638da5cb5b92600480840193829003018186803b158015610b6257600080fd5b505afa158015610b76573d6000803e3d6000fd5b505050506040513d601f19601f82011682018060405250610b9a9190810190611aa3565b6001600160a01b0316639be2faed30836040518363ffffffff1660e01b8152600401610bc7929190612395565b60206040518083038186803b158015610bdf57600080fd5b505afa158015610bf3573d6000803e3d6000fd5b505050506040513d601f19601f82011682018060405250610c179190810190611bbb565b610c335760405162461bcd60e51b81526004016102879061266b565b610c3b61170a565b5033600090815260208181526040808320878452825291829020825180840190935280548352600101546001600160a01b0316908201819052610c82576000935050610d79565b80602001516001600160a01b03166389ae1c906040518163ffffffff1660e01b815260040160206040518083038186803b158015610cbf57600080fd5b505afa158015610cd3573d6000803e3d6000fd5b505050506040513d601f19601f82011682018060405250610cf79190810190611d45565b8151604051630981b24d60e41b81526001600160a01b03929092169163981b24d091610d2591600401612545565b60206040518083038186803b158015610d3d57600080fd5b505afa158015610d51573d6000803e3d6000fd5b505050506040513d601f19601f82011682018060405250610d759190810190611c3f565b9350505b5050919050565b3360009081526020818152604080832084845290915281206001015482906001600160a01b0316610dc35760405162461bcd60e51b81526004016102879061264b565b336000908152602081815260408083208684529091529020600101546001600160a01b031680610df7576000925050610eef565b806001600160a01b0316638da5cb5b6040518163ffffffff1660e01b815260040160206040518083038186803b158015610e3057600080fd5b505afa158015610e44573d6000803e3d6000fd5b505050506040513d601f19601f82011682018060405250610e689190810190611aa3565b6001600160a01b031663b9a04cdd888888856040518563ffffffff1660e01b8152600401610e999493929190612561565b602060405180830381600087803b158015610eb357600080fd5b505af1158015610ec7573d6000803e3d6000fd5b505050506040513d601f19601f82011682018060405250610eeb9190810190611bbb565b9250505b50949350505050565b3360009081526020818152604080832084845290915281206001015482906001600160a01b0316610f3b5760405162461bcd60e51b81526004016102879061264b565b336000908152602081815260408083208684529091529020600101546001600160a01b031680610f6f576000925050611065565b806001600160a01b0316638da5cb5b6040518163ffffffff1660e01b815260040160206040518083038186803b158015610fa857600080fd5b505afa158015610fbc573d6000803e3d6000fd5b505050506040513d601f19601f82011682018060405250610fe09190810190611aa3565b6001600160a01b031663eaf994b28787846040518463ffffffff1660e01b815260040161100f9392919061267b565b602060405180830381600087803b15801561102957600080fd5b505af115801561103d573d6000803e3d6000fd5b505050506040513d601f19601f820116820180604052506110619190810190611bbb565b9250505b509392505050565b60035481565b6000818152600160205260409020600381015460ff166110a55760405162461bcd60e51b81526004016102879061262b565b6003810154610100900460ff166110ce5760405162461bcd60e51b81526004016102879061263b565b6005546001600160a01b03161561118c57600554600480546040516364ab2de960e01b81526001600160a01b03938416936364ab2de99361111e938793600185019360028601939216910161248c565b602060405180830381600087803b15801561113857600080fd5b505af115801561114c573d6000803e3d6000fd5b505050506040513d601f19601f820116820180604052506111709190810190611bbb565b61118c5760405162461bcd60e51b8152600401610287906125db565b60038101805460ff191690556004805460408051638da5cb5b60e01b8152905160609360009384936001600160a01b0390911692638da5cb5b92828101926020929190829003018186803b1580156111e357600080fd5b505afa1580156111f7573d6000803e3d6000fd5b505050506040513d601f19601f8201168201806040525061121b9190810190611aa3565b905060005b845481101561143457606085600101828154811061123a57fe5b600091825260209182902001805460408051601f60026000196101006001871615020190941693909304928301859004850281018501909152818152928301828280156112c85780601f1061129d576101008083540402835291602001916112c8565b820191906000526020600020905b8154815290600101906020018083116112ab57829003601f168201915b50505050509050826001600160a01b031663d1b7089a8760000184815481106112ed57fe5b60009182526020909120015460045460028a0180546001600160a01b039384169387931691908890811061131d57fe5b90600052602060002001546040518563ffffffff1660e01b815260040161134794939291906123ed565b600060405180830381600087803b15801561136157600080fd5b505af1158015611375573d6000803e3d6000fd5b505050506040513d6000823e601f3d908101601f1916820160405261139d9190810190611bd9565b95509350836113be5760405162461bcd60e51b81526004016102879061265b565b600454865488916001600160a01b0316907fcb8058ffa6730183a4e6158708b3f64da7110160c23a40db51ef20718c790ec5908990869081106113fd57fe5b600091825260209091200154604051611423916001600160a01b03169086908b906123b0565b60405180910390a350600101611220565b5060008581526001602052604081209061144e8282611721565b61145c600183016000611742565b61146a600283016000611721565b50600301805461ffff1916905560045460405186916001600160a01b0316907f6bc0cb9e9967b59a69ace442598e1df4368d38661bd5c0800fbcbc9fe855fbbe90600090a360045460405186916001600160a01b0316907f253ad9614c337848bbe7dc3b18b439d139ef5787282b5a517ba7296513d1f53390600090a35050505050565b3360009081526020818152604080832084845290915281206001015482906001600160a01b03166115315760405162461bcd60e51b81526004016102879061264b565b336000908152602081815260408083208684529091529020600101546001600160a01b031680611565576000925050611065565b806001600160a01b0316638da5cb5b6040518163ffffffff1660e01b815260040160206040518083038186803b15801561159e57600080fd5b505afa1580156115b2573d6000803e3d6000fd5b505050506040513d601f19601f820116820180604052506115d69190810190611aa3565b6001600160a01b0316636e94d2788787846040518463ffffffff1660e01b815260040161100f9392919061267b565b82805482825590600052602060002090810192821561165a579160200282015b8281111561165a57825182546001600160a01b0319166001600160a01b03909116178255602090920191600190910190611625565b50611666929150611760565b5090565b8280548282559060005260206000209081019282156116b7579160200282015b828111156116b757825180516116a7918491602090910190611787565b509160200191906001019061168a565b506116669291506117f4565b8280548282559060005260206000209081019282156116fe579160200282015b828111156116fe5782518255916020019190600101906116e3565b50611666929150611817565b604080518082019091526000808252602082015290565b508054600082559060005260206000209081019061173f9190611817565b50565b508054600082559060005260206000209081019061173f91906117f4565b61178491905b808211156116665780546001600160a01b0319168155600101611766565b90565b828054600181600116156101000203166002900490600052602060002090601f016020900481019282601f106117c857805160ff19168380011785556116fe565b828001600101855582156116fe57918201828111156116fe5782518255916020019190600101906116e3565b61178491905b8082111561166657600061180e8282611831565b506001016117fa565b61178491905b80821115611666576000815560010161181d565b50805460018160011615610100020316600290046000825580601f10611857575061173f565b601f01602090049060005260206000209081019061173f9190611817565b803561066781612820565b805161066781612820565b600082601f83011261189c57600080fd5b81356118af6118aa826126ed565b6126c6565b915081818352602084019350602081019050838560208402820111156118d457600080fd5b60005b8381101561190057816118ea8882611875565b84525060209283019291909101906001016118d7565b5050505092915050565b600082601f83011261191b57600080fd5b81356119296118aa826126ed565b81815260209384019390925082018360005b83811015611900578135860161195188826119f8565b845250602092830192919091019060010161193b565b600082601f83011261197857600080fd5b81356119866118aa826126ed565b915081818352602084019350602081019050838560208402820111156119ab57600080fd5b60005b8381101561190057816119c188826119e2565b84525060209283019291909101906001016119ae565b805161066781612834565b80356106678161283d565b80516106678161283d565b600082601f830112611a0957600080fd5b8135611a176118aa8261270e565b91508082526020830160208301858383011115611a3357600080fd5b611a3e83828461279c565b50505092915050565b600082601f830112611a5857600080fd5b8151611a666118aa8261270e565b91508082526020830160208301858383011115611a8257600080fd5b611a3e8382846127a8565b803561066781612846565b805161066781612846565b600060208284031215611ab557600080fd5b60006106638484611880565b60008060408385031215611ad457600080fd5b6000611ae08585611875565b9250506020611af1858286016119e2565b9150509250929050565b60008060008060808587031215611b1157600080fd5b843567ffffffffffffffff811115611b2857600080fd5b611b348782880161188b565b945050602085013567ffffffffffffffff811115611b5157600080fd5b611b5d8782880161190a565b935050604085013567ffffffffffffffff811115611b7a57600080fd5b611b8687828801611967565b925050606085013567ffffffffffffffff811115611ba357600080fd5b611baf878288016119f8565b91505092959194509250565b600060208284031215611bcd57600080fd5b600061066384846119d7565b60008060408385031215611bec57600080fd5b6000611bf885856119d7565b925050602083015167ffffffffffffffff811115611c1557600080fd5b611af185828601611a47565b600060208284031215611c3357600080fd5b600061066384846119e2565b600060208284031215611c5157600080fd5b600061066384846119ed565b60008060408385031215611c7057600080fd5b6000611ae085856119e2565b60008060008060808587031215611c9257600080fd5b6000611c9e8787611a8d565b9450506020611caf87828801611a8d565b9350506040611cc0878288016119e2565b9250506060611baf87828801611a8d565b60008060008060808587031215611ce757600080fd5b6000611cf38787611a8d565b9450506020611d0487828801611875565b9350506040611d15878288016119e2565b9250506060611baf878288016119e2565b60008060408385031215611d3957600080fd5b6000611ae08585611a8d565b600060208284031215611d5757600080fd5b60006106638484611a98565b600080600060608486031215611d7857600080fd5b6000611d8486866119e2565b9350506020611d9586828701611875565b9250506040611da6868287016119e2565b9150509250925092565b6000611dbc8383611dfe565b505060200190565b6000611dd08383612038565b9392505050565b6000611dd08383612070565b6000611dbc838361202f565b611df881612786565b82525050565b611df88161276b565b6000611e1282612748565b611e1c8185612756565b9350611e2783612736565b8060005b83811015611e55578151611e3f8882611db0565b9750611e4a83612736565b925050600101611e2b565b509495945050505050565b6000611e6b8261274c565b611e758185612756565b9350611e808361273c565b8060005b83811015611e5557611e95826127fe565b611e9f8882611db0565b9750611eaa83612750565b925050600101611e84565b6000611ec082612748565b611eca8185612756565b935083602082028501611edc85612736565b8060005b85811015611f165784840389528151611ef98582611dc4565b9450611f0483612736565b60209a909a0199925050600101611ee0565b5091979650505050505050565b6000611f2e8261274c565b611f388185612756565b935083602082028501611f4a8561273c565b8060005b85811015611f1657848403895281611f668582611dd7565b9450611f7183612750565b60209a909a0199925050600101611f4e565b6000611f8e82612748565b611f988185612756565b9350611fa383612736565b8060005b83811015611e55578151611fbb8882611de3565b9750611fc683612736565b925050600101611fa7565b6000611fdc8261274c565b611fe68185612756565b9350611ff18361273c565b8060005b83811015611e55576120068261280a565b6120108882611de3565b975061201b83612750565b925050600101611ff5565b611df881612776565b611df881611784565b600061204382612748565b61204d8185612756565b935061205d8185602086016127a8565b61206681612816565b9093019392505050565b60008154600181166000811461208d57600181146120b3576108e1565b607f600283041661209e8187612756565b60ff19841681529550506020850192506108e1565b600282046120c18187612756565b95506120cc8561273c565b60005b828110156120eb578154888201526001909101906020016120cf565b9096019695505050505050565b611df88161277b565b611df881612791565b6000612117601683612756565b751c1c9bdc1bdcd9481a5cc81b9bdd08185b1b1bddd95960521b815260200192915050565b6000612149601383612756565b7218d85b1b081a5cc81b9bdd08185b1b1bddd959606a1b815260200192915050565b6000612178601583612756565b746176617461722063616e6e6f74206265207a65726f60581b815260200192915050565b60006121a9604283612756565b7f57726f6e67206c656e677468206f66205f636f6e747261637473546f43616c6c81527f2c205f63616c6c73446174614c656e73206f72205f76616c7565732061727261602082015261797360f01b604082015260600192915050565b6000612213601b83612756565b7f63616e2062652063616c6c6564206f6e6c79206f6e652074696d650000000000815260200192915050565b600061224c601483612756565b7363616e6e6f74206578656375746520747769636560601b815260200192915050565b600061227c601783612756565b7f6d7573742062652061206c6976652070726f706f73616c000000000000000000815260200192915050565b60006122b5602683612756565b7f70726f706f73616c206d7573742070617373656420627920766f74696e67206d815265616368696e6560d01b602082015260400192915050565b60006122fd601283612756565b716f6e6c7920566f74696e674d616368696e6560701b815260200192915050565b600061232b601483612756565b73141c9bdc1bdcd85b0818d85b1b0819985a5b195960621b815260200192915050565b600061235b601883612756565b7f736368656d65206973206e6f7420726567697374657265640000000000000000815260200192915050565b602081016106678284611def565b604081016123a38285611dfe565b611dd06020830184611def565b606081016123be8286611dfe565b81810360208301526123d08185612038565b905081810360408301526123e48184612038565b95945050505050565b608081016123fb8287611dfe565b818103602083015261240d8186612038565b905061241c60408301856120f8565b6123e4606083018461202f565b604081016124378285611dfe565b611dd0602083018461202f565b608080825281016124558187611e07565b905081810360208301526124698186611eb5565b9050818103604083015261247d8185611f83565b90506123e460608301846120f8565b6080808252810161249d8187611e60565b905081810360208301526124b18186611f23565b9050818103604083015261247d8185611fd1565b608080825281016124d68187611eb5565b905081810360208301526124ea8186611f83565b905081810360408301526124fe8185612038565b905081810360608301526125128184611e07565b9695505050505050565b602081016106678284612026565b604081016125388285612026565b611dd06020830184612026565b60208101610667828461202f565b6020810161066782846120f8565b6080810161256f82876120f8565b61257c6020830186611dfe565b612589604083018561202f565b6123e460608301846120f8565b608081016125a48287612101565b6125b1602083018661202f565b6125be6040830185611def565b6123e46060830184611def565b602080825281016106678161210a565b602080825281016106678161213c565b602080825281016106678161216b565b602080825281016106678161219c565b6020808252810161066781612206565b602080825281016106678161223f565b602080825281016106678161226f565b60208082528101610667816122a8565b60208082528101610667816122f0565b602080825281016106678161231e565b602080825281016106678161234e565b60608101612689828661202f565b6126966020830185611dfe565b6126a36040830184611def565b949350505050565b604081016126b9828561202f565b611dd060208301846120f8565b60405181810167ffffffffffffffff811182821017156126e557600080fd5b604052919050565b600067ffffffffffffffff82111561270457600080fd5b5060209081020190565b600067ffffffffffffffff82111561272557600080fd5b506020601f91909101601f19160190565b60200190565b60009081526020902090565b5190565b5490565b60010190565b90815260200190565b6001600160a01b031690565b60006106678261275f565b151590565b60006106678261276b565b60006106678261277b565b600061066782611784565b82818337506000910152565b60005b838110156127c35781810151838201526020016127ab565b838111156127d2576000848401525b50505050565b60006106676127e683611784565b61275f565b60006106676127f983611784565b611784565b600061066782546127d8565b600061066782546127eb565b601f01601f191690565b6128298161276b565b811461173f57600080fd5b61282981612776565b61282981611784565b6128298161277b56fea365627a7a723158203677e075d97e0d34bd6bda9e4961caed402b91f56fa8e053ad9deef1eaee43906c6578706572696d656e74616cf564736f6c63430005110040",
  "linkReferences": {},
  "deployedLinkReferences": {}
}