{
  "_format": "hh-sol-artifact-1",
  "contractName": "ARCVotingMachineCallbacksMock",
  "sourceName": "contracts/test/ARCGenesisProtocolCallbacksMock.sol",
  "abi": [
    {
      "constant": true,
      "inputs": [
        {
          "internalType": "contract IERC20",
          "name": "_stakingToken",
          "type": "address"
        },
        {
          "internalType": "bytes32",
          "name": "_proposalId",
          "type": "bytes32"
        }
      ],
      "name": "balanceOfStakingToken",
      "outputs": [
        {
          "internalType": "uint256",
          "name": "",
          "type": "uint256"
        }
      ],
      "payable": false,
      "stateMutability": "view",
      "type": "function"
    },
    {
      "constant": false,
      "inputs": [
        {
          "internalType": "uint256",
          "name": "_amount",
          "type": "uint256"
        },
        {
          "internalType": "address",
          "name": "_beneficiary",
          "type": "address"
        },
        {
          "internalType": "bytes32",
          "name": "_proposalId",
          "type": "bytes32"
        }
      ],
      "name": "burnReputation",
      "outputs": [
        {
          "internalType": "bool",
          "name": "",
          "type": "bool"
        }
      ],
      "payable": false,
      "stateMutability": "nonpayable",
      "type": "function"
    },
    {
      "constant": true,
      "inputs": [
        {
          "internalType": "bytes32",
          "name": "_proposalId",
          "type": "bytes32"
        }
      ],
      "name": "getTotalReputationSupply",
      "outputs": [
        {
          "internalType": "uint256",
          "name": "",
          "type": "uint256"
        }
      ],
      "payable": false,
      "stateMutability": "view",
      "type": "function"
    },
    {
      "constant": false,
      "inputs": [
        {
          "internalType": "uint256",
          "name": "_amount",
          "type": "uint256"
        },
        {
          "internalType": "address",
          "name": "_beneficiary",
          "type": "address"
        },
        {
          "internalType": "bytes32",
          "name": "_proposalId",
          "type": "bytes32"
        }
      ],
      "name": "mintReputation",
      "outputs": [
        {
          "internalType": "bool",
          "name": "",
          "type": "bool"
        }
      ],
      "payable": false,
      "stateMutability": "nonpayable",
      "type": "function"
    },
    {
      "constant": true,
      "inputs": [
        {
          "internalType": "address",
          "name": "",
          "type": "address"
        },
        {
          "internalType": "bytes32",
          "name": "",
          "type": "bytes32"
        }
      ],
      "name": "proposalsInfo",
      "outputs": [
        {
          "internalType": "uint256",
          "name": "blockNumber",
          "type": "uint256"
        },
        {
          "internalType": "contract Avatar",
          "name": "avatar",
          "type": "address"
        }
      ],
      "payable": false,
      "stateMutability": "view",
      "type": "function"
    },
    {
      "constant": false,
      "inputs": [
        {
          "internalType": "bytes32",
          "name": "_proposalId",
          "type": "bytes32"
        },
        {
          "internalType": "contract Avatar",
          "name": "_avatar",
          "type": "address"
        },
        {
          "internalType": "address",
          "name": "_votingMachine",
          "type": "address"
        }
      ],
      "name": "propose",
      "outputs": [],
      "payable": false,
      "stateMutability": "nonpayable",
      "type": "function"
    },
    {
      "constant": true,
      "inputs": [
        {
          "internalType": "address",
          "name": "_owner",
          "type": "address"
        },
        {
          "internalType": "bytes32",
          "name": "_proposalId",
          "type": "bytes32"
        }
      ],
      "name": "reputationOf",
      "outputs": [
        {
          "internalType": "uint256",
          "name": "",
          "type": "uint256"
        }
      ],
      "payable": false,
      "stateMutability": "view",
      "type": "function"
    },
    {
      "constant": false,
      "inputs": [
        {
          "internalType": "contract IERC20",
          "name": "_stakingToken",
          "type": "address"
        },
        {
          "internalType": "address",
          "name": "_beneficiary",
          "type": "address"
        },
        {
          "internalType": "uint256",
          "name": "_amount",
          "type": "uint256"
        },
        {
          "internalType": "bytes32",
          "name": "_proposalId",
          "type": "bytes32"
        }
      ],
      "name": "stakingTokenTransfer",
      "outputs": [
        {
          "internalType": "bool",
          "name": "",
          "type": "bool"
        }
      ],
      "payable": false,
      "stateMutability": "nonpayable",
      "type": "function"
    }
  ],
  "bytecode": "0x608060405234801561001057600080fd5b50610d8f806100206000396000f3fe608060405234801561001057600080fd5b50600436106100885760003560e01c8063b8752ba31161005b578063b8752ba314610161578063bea75f2814610197578063d29b5d2f146101e7578063f81f8bf61461021957610088565b806360bdbb3f1461008d5780636b8eb403146100da5780639588378e14610118578063b551c37314610144575b600080fd5b6100b9600480360360408110156100a357600080fd5b506001600160a01b03813516906020013561024b565b604080519283526001600160a01b0390911660208301528051918290030190f35b610106600480360360408110156100f057600080fd5b506001600160a01b038135169060200135610275565b60408051918252519081900360200190f35b6101066004803603604081101561012e57600080fd5b506001600160a01b038135169060200135610335565b6101066004803603602081101561015a57600080fd5b50356105c7565b6101956004803603606081101561017757600080fd5b508035906001600160a01b036020820135811691604001351661084f565b005b6101d3600480360360808110156101ad57600080fd5b506001600160a01b038135811691602081013590911690604081013590606001356108a7565b604080519115158252519081900360200190f35b6101d3600480360360608110156101fd57600080fd5b508035906001600160a01b036020820135169060400135610a49565b6101d36004803603606081101561022f57600080fd5b508035906001600160a01b036020820135169060400135610be2565b6000602081815292815260408082209093529081522080546001909101546001600160a01b031682565b336000908152602081815260408083208484529091528120600101546001600160a01b0316806102a957600091505061032f565b836001600160a01b03166370a08231826040518263ffffffff1660e01b815260040180826001600160a01b03166001600160a01b0316815260200191505060206040518083038186803b1580156102ff57600080fd5b505afa158015610313573d6000803e3d6000fd5b505050506040513d602081101561032957600080fd5b50519150505b92915050565b336000908152602081815260408083208484528252808320600101548151638da5cb5b60e01b8152915185936001600160a01b03909216928392638da5cb5b92600480840193829003018186803b15801561038f57600080fd5b505afa1580156103a3573d6000803e3d6000fd5b505050506040513d60208110156103b957600080fd5b505160408051639be2faed60e01b81523060048201526001600160a01b03848116602483015291519190921691639be2faed916044808301926020929190829003018186803b15801561040b57600080fd5b505afa15801561041f573d6000803e3d6000fd5b505050506040513d602081101561043557600080fd5b5051610483576040805162461bcd60e51b81526020600482015260186024820152771cd8da195b59481a5cc81b9bdd081c9959da5cdd195c995960421b604482015290519081900360640190fd5b61048b610d43565b5033600090815260208181526040808320878452825291829020825180840190935280548352600101546001600160a01b03169082018190526104d25760009350506105bf565b80602001516001600160a01b03166389ae1c906040518163ffffffff1660e01b815260040160206040518083038186803b15801561050f57600080fd5b505afa158015610523573d6000803e3d6000fd5b505050506040513d602081101561053957600080fd5b505181516040805163277166bf60e11b81526001600160a01b038a81166004830152602482019390935290519190921691634ee2cd7e916044808301926020929190829003018186803b15801561058f57600080fd5b505afa1580156105a3573d6000803e3d6000fd5b505050506040513d60208110156105b957600080fd5b50519350505b505092915050565b336000908152602081815260408083208484528252808320600101548151638da5cb5b60e01b8152915185936001600160a01b03909216928392638da5cb5b92600480840193829003018186803b15801561062157600080fd5b505afa158015610635573d6000803e3d6000fd5b505050506040513d602081101561064b57600080fd5b505160408051639be2faed60e01b81523060048201526001600160a01b03848116602483015291519190921691639be2faed916044808301926020929190829003018186803b15801561069d57600080fd5b505afa1580156106b1573d6000803e3d6000fd5b505050506040513d60208110156106c757600080fd5b5051610715576040805162461bcd60e51b81526020600482015260186024820152771cd8da195b59481a5cc81b9bdd081c9959da5cdd195c995960421b604482015290519081900360640190fd5b61071d610d43565b5033600090815260208181526040808320878452825291829020825180840190935280548352600101546001600160a01b0316908201819052610764576000935050610848565b80602001516001600160a01b03166389ae1c906040518163ffffffff1660e01b815260040160206040518083038186803b1580156107a157600080fd5b505afa1580156107b5573d6000803e3d6000fd5b505050506040513d60208110156107cb57600080fd5b5051815160408051630981b24d60e41b81526004810192909252516001600160a01b039092169163981b24d091602480820192602092909190829003018186803b15801561081857600080fd5b505afa15801561082c573d6000803e3d6000fd5b505050506040513d602081101561084257600080fd5b50519350505b5050919050565b6040805180820182524381526001600160a01b03938416602080830191825293851660009081528085528381209681529590935293209251835551600190920180546001600160a01b03191692909116919091179055565b3360009081526020818152604080832084845290915281206001015482906001600160a01b0316610914576040805162461bcd60e51b81526020600482015260126024820152716f6e6c7920566f74696e674d616368696e6560701b604482015290519081900360640190fd5b336000908152602081815260408083208684529091529020600101546001600160a01b031680610948576000925050610a40565b806001600160a01b0316638da5cb5b6040518163ffffffff1660e01b815260040160206040518083038186803b15801561098157600080fd5b505afa158015610995573d6000803e3d6000fd5b505050506040513d60208110156109ab57600080fd5b50516040805163b9a04cdd60e01b81526001600160a01b038a8116600483015289811660248301526044820189905284811660648301529151919092169163b9a04cdd9160848083019260209291908290030181600087803b158015610a1057600080fd5b505af1158015610a24573d6000803e3d6000fd5b505050506040513d6020811015610a3a57600080fd5b50519250505b50949350505050565b3360009081526020818152604080832084845290915281206001015482906001600160a01b0316610ab6576040805162461bcd60e51b81526020600482015260126024820152716f6e6c7920566f74696e674d616368696e6560701b604482015290519081900360640190fd5b336000908152602081815260408083208684529091529020600101546001600160a01b031680610aea576000925050610bda565b806001600160a01b0316638da5cb5b6040518163ffffffff1660e01b815260040160206040518083038186803b158015610b2357600080fd5b505afa158015610b37573d6000803e3d6000fd5b505050506040513d6020811015610b4d57600080fd5b50516040805163757cca5960e11b8152600481018990526001600160a01b03888116602483015284811660448301529151919092169163eaf994b29160648083019260209291908290030181600087803b158015610baa57600080fd5b505af1158015610bbe573d6000803e3d6000fd5b505050506040513d6020811015610bd457600080fd5b50519250505b509392505050565b3360009081526020818152604080832084845290915281206001015482906001600160a01b0316610c4f576040805162461bcd60e51b81526020600482015260126024820152716f6e6c7920566f74696e674d616368696e6560701b604482015290519081900360640190fd5b336000908152602081815260408083208684529091529020600101546001600160a01b031680610c83576000925050610bda565b806001600160a01b0316638da5cb5b6040518163ffffffff1660e01b815260040160206040518083038186803b158015610cbc57600080fd5b505afa158015610cd0573d6000803e3d6000fd5b505050506040513d6020811015610ce657600080fd5b505160408051630dd29a4f60e31b8152600481018990526001600160a01b038881166024830152848116604483015291519190921691636e94d2789160648083019260209291908290030181600087803b158015610baa57600080fd5b60408051808201909152600080825260208201529056fea265627a7a72315820062be3bf5270a50195c1fded3bc5df38405b7036d45f11b34f430ad0a2d2652d64736f6c63430005110032",
  "linkReferences": {},
  "deployedLinkReferences": {}
}