{
  "_format": "hh-sol-artifact-1",
  "contractName": "SimpleSchemeConstraints",
  "sourceName": "contracts/schemes/SimpleSchemeConstraints.sol",
  "abi": [
    {
      "constant": true,
      "inputs": [
        {
          "internalType": "uint256",
          "name": "",
          "type": "uint256"
        }
      ],
      "name": "contractsWhiteList",
      "outputs": [
        {
          "internalType": "address",
          "name": "",
          "type": "address"
        }
      ],
      "payable": false,
      "stateMutability": "view",
      "type": "function"
    },
    {
      "constant": true,
      "inputs": [
        {
          "internalType": "address",
          "name": "",
          "type": "address"
        }
      ],
      "name": "contractsWhiteListMap",
      "outputs": [
        {
          "internalType": "bool",
          "name": "",
          "type": "bool"
        }
      ],
      "payable": false,
      "stateMutability": "view",
      "type": "function"
    },
    {
      "constant": true,
      "inputs": [],
      "name": "descriptionHash",
      "outputs": [
        {
          "internalType": "string",
          "name": "",
          "type": "string"
        }
      ],
      "payable": false,
      "stateMutability": "view",
      "type": "function"
    },
    {
      "constant": true,
      "inputs": [],
      "name": "getContractsWhiteList",
      "outputs": [
        {
          "internalType": "address[]",
          "name": "",
          "type": "address[]"
        }
      ],
      "payable": false,
      "stateMutability": "view",
      "type": "function"
    },
    {
      "constant": false,
      "inputs": [
        {
          "internalType": "address[]",
          "name": "_contractsWhiteList",
          "type": "address[]"
        },
        {
          "internalType": "string",
          "name": "_descriptionHash",
          "type": "string"
        }
      ],
      "name": "initialize",
      "outputs": [],
      "payable": false,
      "stateMutability": "nonpayable",
      "type": "function"
    },
    {
      "constant": true,
      "inputs": [],
      "name": "initialized",
      "outputs": [
        {
          "internalType": "bool",
          "name": "",
          "type": "bool"
        }
      ],
      "payable": false,
      "stateMutability": "view",
      "type": "function"
    },
    {
      "constant": false,
      "inputs": [
        {
          "internalType": "address[]",
          "name": "_contractsToCall",
          "type": "address[]"
        },
        {
          "internalType": "bytes[]",
          "name": "",
          "type": "bytes[]"
        },
        {
          "internalType": "uint256[]",
          "name": "",
          "type": "uint256[]"
        },
        {
          "internalType": "contract Avatar",
          "name": "",
          "type": "address"
        }
      ],
      "name": "isAllowedToCall",
      "outputs": [
        {
          "internalType": "bool",
          "name": "",
          "type": "bool"
        }
      ],
      "payable": false,
      "stateMutability": "nonpayable",
      "type": "function"
    },
    {
      "constant": false,
      "inputs": [
        {
          "internalType": "address[]",
          "name": "_contractsToCall",
          "type": "address[]"
        },
        {
          "internalType": "bytes[]",
          "name": "",
          "type": "bytes[]"
        },
        {
          "internalType": "uint256[]",
          "name": "",
          "type": "uint256[]"
        },
        {
          "internalType": "contract Avatar",
          "name": "",
          "type": "address"
        }
      ],
      "name": "isAllowedToPropose",
      "outputs": [
        {
          "internalType": "bool",
          "name": "",
          "type": "bool"
        }
      ],
      "payable": false,
      "stateMutability": "nonpayable",
      "type": "function"
    }
  ],
  "bytecode": "0x608060405234801561001057600080fd5b506109d2806100206000396000f3fe608060405234801561001057600080fd5b50600436106100885760003560e01c806385dcee931161005b57806385dcee93146100e8578063b7f59236146100fd578063da6f0d9b1461011d578063e5e48a341461013057610088565b8063158ef93e1461008d5780633233efe5146100ab5780633b7fdf09146100c057806364ab2de9146100d5575b600080fd5b610095610143565b6040516100a291906108b3565b60405180910390f35b6100be6100b93660046106d0565b61014c565b005b6100c8610208565b6040516100a2919061089b565b6100956100e336600461061a565b61026b565b6100f06102ec565b6040516100a291906108c1565b61011061010b366004610740565b610379565b6040516100a2919061088d565b61009561012b36600461061a565b6103a0565b61009561013e3660046105f4565b610412565b60035460ff1681565b60035460ff16156101785760405162461bcd60e51b815260040161016f906108d2565b60405180910390fd5b6003805460ff1916600117905560005b838110156101e7576001600260008787858181106101a257fe5b90506020020160206101b791908101906105f4565b6001600160a01b031681526020810191909152604001600020805460ff1916911515919091179055600101610188565b506101f460008585610427565b506102016001838361048a565b5050505050565b6060600080548060200260200160405190810160405280929190818152602001828054801561026057602002820191906000526020600020905b81546001600160a01b03168152600190910190602001808311610242575b505050505090505b90565b6000805b878110156102dd57600260008a8a8481811061028757fe5b905060200201602061029c91908101906105f4565b6001600160a01b0316815260208101919091526040016000205460ff166102d55760405162461bcd60e51b815260040161016f906108e2565b60010161026f565b50600198975050505050505050565b60018054604080516020600284861615610100026000190190941693909304601f810184900484028201840190925281815292918301828280156103715780601f1061034657610100808354040283529160200191610371565b820191906000526020600020905b81548152906001019060200180831161035457829003601f168201915b505050505081565b6000818154811061038657fe5b6000918252602090912001546001600160a01b0316905081565b6000805b878110156102dd57600260008a8a848181106103bc57fe5b90506020020160206103d191908101906105f4565b6001600160a01b0316815260208101919091526040016000205460ff1661040a5760405162461bcd60e51b815260040161016f906108e2565b6001016103a4565b60026020526000908152604090205460ff1681565b82805482825590600052602060002090810192821561047a579160200282015b8281111561047a5781546001600160a01b0319166001600160a01b03843516178255602090920191600190910190610447565b50610486929150610504565b5090565b828054600181600116156101000203166002900490600052602060002090601f016020900481019282601f106104cb5782800160ff198235161785556104f8565b828001600101855582156104f8579182015b828111156104f85782358255916020019190600101906104dd565b50610486929150610528565b61026891905b808211156104865780546001600160a01b031916815560010161050a565b61026891905b80821115610486576000815560010161052e565b803561054d81610966565b92915050565b60008083601f84011261056557600080fd5b50813567ffffffffffffffff81111561057d57600080fd5b60208301915083602082028301111561059557600080fd5b9250929050565b803561054d8161097d565b60008083601f8401126105b957600080fd5b50813567ffffffffffffffff8111156105d157600080fd5b60208301915083600182028301111561059557600080fd5b803561054d81610986565b60006020828403121561060657600080fd5b60006106128484610542565b949350505050565b60008060008060008060006080888a03121561063557600080fd5b873567ffffffffffffffff81111561064c57600080fd5b6106588a828b01610553565b9750975050602088013567ffffffffffffffff81111561067757600080fd5b6106838a828b01610553565b9550955050604088013567ffffffffffffffff8111156106a257600080fd5b6106ae8a828b01610553565b935093505060606106c18a828b0161059c565b91505092959891949750929550565b600080600080604085870312156106e657600080fd5b843567ffffffffffffffff8111156106fd57600080fd5b61070987828801610553565b9450945050602085013567ffffffffffffffff81111561072857600080fd5b610734878288016105a7565b95989497509550505050565b60006020828403121561075257600080fd5b600061061284846105e9565b600061076a8383610772565b505060200190565b61077b81610905565b82525050565b600061078c826108f8565b61079681856108fc565b93506107a1836108f2565b8060005b838110156107cf5781516107b9888261075e565b97506107c4836108f2565b9250506001016107a5565b509495945050505050565b61077b81610910565b60006107ee826108f8565b6107f881856108fc565b935061080881856020860161092c565b6108118161095c565b9093019392505050565b60006108286017836108fc565b7f63616e6e6f7420696e697469616c697a65207477696365000000000000000000815260200192915050565b60006108616018836108fc565b7f636f6e7472616374206e6f742077686974656c69737465640000000000000000815260200192915050565b6020810161054d8284610772565b602080825281016108ac8184610781565b9392505050565b6020810161054d82846107da565b602080825281016108ac81846107e3565b6020808252810161054d8161081b565b6020808252810161054d81610854565b60200190565b5190565b90815260200190565b600061054d82610920565b151590565b600061054d82610905565b6001600160a01b031690565b60005b8381101561094757818101518382015260200161092f565b83811115610956576000848401525b50505050565b601f01601f191690565b61096f81610905565b811461097a57600080fd5b50565b61096f81610915565b61096f8161026856fea365627a7a72315820901377e5d27152b2fd61b0aa3d1aba073dffa89124914d2256b63ae8f2e4c0966c6578706572696d656e74616cf564736f6c63430005110040",
  "linkReferences": {},
  "deployedLinkReferences": {}
}