{
  "_format": "hh-sol-artifact-1",
  "contractName": "CompetitionFactory",
  "sourceName": "contracts/utils/CompetitionFactory.sol",
  "abi": [
    {
      "anonymous": false,
      "inputs": [
        {
          "indexed": false,
          "internalType": "address",
          "name": "competition",
          "type": "address"
        },
        {
          "indexed": false,
          "internalType": "address",
          "name": "contributionRewardExt",
          "type": "address"
        }
      ],
      "name": "NewCompetition",
      "type": "event"
    },
    {
      "constant": true,
      "inputs": [],
      "name": "CUSTOM",
      "outputs": [
        {
          "internalType": "uint8",
          "name": "",
          "type": "uint8"
        }
      ],
      "payable": false,
      "stateMutability": "view",
      "type": "function"
    },
    {
      "constant": true,
      "inputs": [],
      "name": "FAST",
      "outputs": [
        {
          "internalType": "uint8",
          "name": "",
          "type": "uint8"
        }
      ],
      "payable": false,
      "stateMutability": "view",
      "type": "function"
    },
    {
      "constant": true,
      "inputs": [],
      "name": "NORMAL",
      "outputs": [
        {
          "internalType": "uint8",
          "name": "",
          "type": "uint8"
        }
      ],
      "payable": false,
      "stateMutability": "view",
      "type": "function"
    },
    {
      "constant": true,
      "inputs": [],
      "name": "SLOW",
      "outputs": [
        {
          "internalType": "uint8",
          "name": "",
          "type": "uint8"
        }
      ],
      "payable": false,
      "stateMutability": "view",
      "type": "function"
    },
    {
      "constant": false,
      "inputs": [
        {
          "internalType": "contract Avatar",
          "name": "_avatar",
          "type": "address"
        },
        {
          "internalType": "contract IntVoteInterface",
          "name": "_votingMachine",
          "type": "address"
        },
        {
          "internalType": "uint8",
          "name": "_voteParamsType",
          "type": "uint8"
        },
        {
          "internalType": "uint256[11]",
          "name": "_votingParams",
          "type": "uint256[11]"
        },
        {
          "internalType": "address",
          "name": "_voteOnBehalf",
          "type": "address"
        }
      ],
      "name": "createCompetition",
      "outputs": [
        {
          "internalType": "address",
          "name": "",
          "type": "address"
        },
        {
          "internalType": "address",
          "name": "",
          "type": "address"
        }
      ],
      "payable": false,
      "stateMutability": "nonpayable",
      "type": "function"
    }
  ],
  "bytecode": "0x608060405234801561001057600080fd5b50615bfa806100206000396000f3fe608060405234801561001057600080fd5b50600436106100575760003560e01c806327cec8d81461005c578063884c0e031461007a578063ae24595c1461011d578063c2c3c27f14610125578063e4c927311461012d575b600080fd5b610064610135565b6040805160ff9092168252519081900360200190f35b6100f760048036036101e081101561009157600080fd5b60408051610160808201835284356001600160a01b03908116956020810135909116949381013560ff169381019290916101c0830191906060840190600b9083908390808284376000920191909152509194505050356001600160a01b0316905061013a565b604080516001600160a01b03938416815291909216602082015281519081900390910190f35b6100646103f2565b6100646103f7565b6100646103fc565b600381565b60008060048560ff161061017f5760405162461bcd60e51b8152600401808060200182810382526029815260200180615b9d6029913960400191505060405180910390fd5b600060405161018d90610591565b604051809103906000f0801580156101a9573d6000803e3d6000fd5b50905060006040516101ba9061059e565b604051809103906000f0801580156101d6573d6000803e3d6000fd5b509050806001600160a01b031663c4d66de8836040518263ffffffff1660e01b815260040180826001600160a01b03166001600160a01b03168152602001915050600060405180830381600087803b15801561023157600080fd5b505af1158015610245573d6000803e3d6000fd5b505050506102516105ab565b60ff881661026057508561026c565b61026988610401565b90505b604051638894c41b60e01b81526000906001600160a01b038b1690638894c41b9084908a9060040180836101608083838b5b838110156102b657818101518382015260200161029e565b50505050905001826001600160a01b03166001600160a01b0316815260200192505050602060405180830381600087803b1580156102f357600080fd5b505af1158015610307573d6000803e3d6000fd5b505050506040513d602081101561031d57600080fd5b505160408051630a31ee5b60e41b81526001600160a01b038e811660048301528d8116602483015260448201849052868116606483015291519293509086169163a31ee5b09160848082019260009290919082900301818387803b15801561038457600080fd5b505af1158015610398573d6000803e3d6000fd5b5050604080516001600160a01b0380881682528816602082015281517fb17b5f95eb730e492a980d904a234b4cfd9d7178629d6c0f31d7d24ce9a0f7799450908190039091019150a1509099919850909650505050505050565b600281565b600081565b600181565b6104096105ab565b60ff82166001141561048a576040518061016001604052806032815260200162093a8081526020016201fa40815260200161a8c081526020016104b08152602001620151808152602001678ac7230489e800008152602001600181526020016802b5e3af16b18800008152602001600a81526020016000815250905061058c565b60ff82166002141561050d576040518061016001604052806032815260200162278d0081526020016205460081526020016201518081526020016104b081526020016202a30081526020016802b5e3af16b1880000815260200160048152602001680821ab0d44149800008152602001600a81526020016000815250905061058c565b60ff82166003141561058c5760405180610160016040528060328152602001624f1a008152602001620a8c0081526020016202a30081526020016105dc8152602001620546008152602001680ad78ebc5ac6200000815260200160048152602001681b1ae4d6e2ef5000008152602001600a8152602001600081525090505b919050565b6130be806105cb83390190565b6125148061368983390190565b604051806101600160405280600b90602082028038833950919291505056fe608060405234801561001057600080fd5b5061309e806100206000396000f3fe6080604052600436106101cd5760003560e01c80639f874c99116100f7578063cbba1f5a11610095578063de9a957a11610064578063de9a957a1461089a578063e5e21164146108d9578063f3f4b048146108ee578063f81f8bf614610918576101cd565b8063cbba1f5a1461078b578063d29b5d2f146107b5578063d8145e2d146107f4578063dcc3e06e14610885576101cd565b8063b5b8b865116100d1578063b5b8b865146106af578063bea75f28146106d9578063c4a17ec914610722578063c7916cf914610761576101cd565b80639f874c9914610612578063a31ee5b01461063c578063b551c37314610685576101cd565b8063582432131161016f5780636e8a61881161013e5780636e8a61881461052c5780637e078b551461056b5780639588378e146105955780639d4c162d146105ce576101cd565b8063582432131461045a5780635aef7de61461048457806360bdbb3f146104995780636b8eb403146104f3576101cd565b80633c2163dc116101ab5780633c2163dc146102d35780633edf7ca1146102fd578063432848dc1461032e57806352717a5e14610430576101cd565b80632ac8c1b2146101cf57806334f243521461020e5780633a0284ff1461024a575b005b3480156101db57600080fd5b506101cd600480360360608110156101f257600080fd5b508035906001600160a01b036020820135169060400135610957565b34801561021a57600080fd5b506102386004803603602081101561023157600080fd5b5035610ab4565b60408051918252519081900360200190f35b34801561025657600080fd5b506102ad600480360360a081101561026d57600080fd5b604080516080818101909252833593928301929160a08301919060208401906004908390839080828437600092019190915250919450610c919350505050565b604080519485526020850193909352838301919091526060830152519081900360800190f35b3480156102df57600080fd5b50610238600480360360208110156102f657600080fd5b5035610cf9565b34801561030957600080fd5b50610312610f0c565b604080516001600160a01b039092168252519081900360200190f35b34801561033a57600080fd5b50610238600480360361010081101561035257600080fd5b81019060208101813564010000000081111561036d57600080fd5b82018360208201111561037f57600080fd5b803590602001918460018302840111640100000000831117156103a157600080fd5b91908080601f016020809104026020016040519081016040528093929190818152602001838380828437600092019190915250506040805160608181019092529396853596909590946080820194509250602001906003908390839080828437600092019190915250919450506001600160a01b03823581169350602083013581169260400135169050610f1b565b34801561043c57600080fd5b506102386004803603602081101561045357600080fd5b503561134f565b34801561046657600080fd5b506102386004803603602081101561047d57600080fd5b5035611364565b34801561049057600080fd5b50610312611548565b3480156104a557600080fd5b506104d2600480360360408110156104bc57600080fd5b506001600160a01b038135169060200135611557565b604080519283526001600160a01b0390911660208301528051918290030190f35b3480156104ff57600080fd5b506102386004803603604081101561051657600080fd5b506001600160a01b038135169060200135611581565b34801561053857600080fd5b506101cd6004803603606081101561054f57600080fd5b508035906001600160a01b036020820135169060400135611641565b34801561057757600080fd5b506103126004803603602081101561058e57600080fd5b50356117fb565b3480156105a157600080fd5b50610238600480360360408110156105b857600080fd5b506001600160a01b038135169060200135611819565b3480156105da57600080fd5b506105fe600480360360408110156105f157600080fd5b5080359060200135611aab565b604080519115158252519081900360200190f35b34801561061e57600080fd5b506102386004803603602081101561063557600080fd5b5035611bd1565b34801561064857600080fd5b506101cd6004803603608081101561065f57600080fd5b506001600160a01b03813581169160208101358216916040820135916060013516611be6565b34801561069157600080fd5b50610238600480360360208110156106a857600080fd5b5035611d37565b3480156106bb57600080fd5b50610238600480360360208110156106d257600080fd5b5035611fbf565b3480156106e557600080fd5b506105fe600480360360808110156106fc57600080fd5b506001600160a01b03813581169160208101359091169060408101359060600135611fd1565b34801561072e57600080fd5b506101cd6004803603606081101561074557600080fd5b508035906001600160a01b036020820135169060400135612173565b34801561076d57600080fd5b506102386004803603602081101561078457600080fd5b5035612397565b34801561079757600080fd5b506105fe600480360360208110156107ae57600080fd5b50356126a6565b3480156107c157600080fd5b506105fe600480360360608110156107d857600080fd5b508035906001600160a01b0360208201351690604001356126be565b34801561080057600080fd5b5061081e6004803603602081101561081757600080fd5b5035612857565b604080519b8c5260208c019a909a528a8a01989098526001600160a01b0396871660608b015260808a01959095529290941660a088015260c087015260e0860192909252610100850191909152610120840152151561014083015251908190036101600190f35b34801561089157600080fd5b506103126128be565b3480156108a657600080fd5b506101cd600480360360608110156108bd57600080fd5b508035906001600160a01b0360208201351690604001356128cd565b3480156108e557600080fd5b50610238612a24565b3480156108fa57600080fd5b506102386004803603602081101561091157600080fd5b5035612a2a565b34801561092457600080fd5b506105fe6004803603606081101561093b57600080fd5b508035906001600160a01b036020820135169060400135612a40565b6005546001600160a01b031633146109a4576040805162461bcd60e51b815260206004820152601c6024820152600080516020612f0b833981519152604482015290519081900360640190fd5b6000838152600160205260409020600a81015460ff166109f55760405162461bcd60e51b815260040180806020018281038252602f815260200180612e7c602f913960400191505060405180910390fd5b610a2482604051806080016040528060568152602001613014605691396008840154919063ffffffff612ba116565b60088201558115610aae576040516001600160a01b0384169083156108fc029084906000818181858888f19350505050158015610a65573d6000803e3d6000fd5b506004546040805184815290516001600160a01b038087169388939116917f7dd55ea53ce2c347b544c257b778e1dd6638f232fa6b94320e740440e72b4b879181900360200190a45b50505050565b6000818152600160205260408120600a81015460ff16610b055760405162461bcd60e51b815260040180806020018281038252602f815260200180612e7c602f913960400191505060405180910390fd5b60058101546001600160a01b0316301415610b2b576006810154610b2b57805460068201555b80546000825591508115610c8b576004805460408051638da5cb5b60e01b815290516001600160a01b0390921692638da5cb5b928282019260209290829003018186803b158015610b7b57600080fd5b505afa158015610b8f573d6000803e3d6000fd5b505050506040513d6020811015610ba557600080fd5b505160058201546004805460408051633203f21960e11b81529283018790526001600160a01b0393841660248401529083166044830152519190921691636407e4329160648083019260209291908290030181600087803b158015610c0957600080fd5b505af1158015610c1d573d6000803e3d6000fd5b505050506040513d6020811015610c3357600080fd5b5051610c3e57600080fd5b60058101546004546040805185815290516001600160a01b0393841693879316917f13f7471cab9806ac4ff5d80ae879babfbf1081e240d05c4450b75f69c626cb2e919081900360200190a45b50919050565b60008080808481602002015115610cae57610cab86612397565b93505b602085015115610cc457610cc186610ab4565b92505b604085015115610cda57610cd786611364565b91505b606085015115610cf057610ced86610cf9565b90505b92959194509250565b6000818152600160205260408120600a81015460ff16610d4a5760405162461bcd60e51b815260040180806020018281038252602f815260200180612e7c602f913960400191505060405180910390fd5b60058101546001600160a01b0316301415610d73576009810154610d7357600481015460098201555b60038101546001600160a01b031615801590610d93575060008160040154115b15610c8b57600480820180546000909155815460408051638da5cb5b60e01b815290519295506001600160a01b0390911692638da5cb5b928282019260209290829003018186803b158015610de757600080fd5b505afa158015610dfb573d6000803e3d6000fd5b505050506040513d6020811015610e1157600080fd5b505160038201546005830154600480546040805163b9a04cdd60e01b81526001600160a01b0395861693810193909352928416602483015260448201879052831660648201529051919092169163b9a04cdd9160848083019260209291908290030181600087803b158015610e8557600080fd5b505af1158015610e99573d6000803e3d6000fd5b505050506040513d6020811015610eaf57600080fd5b5051610eba57600080fd5b60058101546004546040805185815290516001600160a01b0393841693879316917f5a66e28cdcd3bc22082d9f07be2b6bed5f50f349e5d89f655d750ecdd1988374919081900360200190a450919050565b6002546001600160a01b031681565b6000816001600160a01b038116610f2f5750335b600280546003546004805460408051634439bdaf60e11b81529283019590955260248201929092526001600160a01b038581166044830152918216606482015292519116916388737b5e9160848083019260209291908290030181600087803b158015610f9b57600080fd5b505af1158015610faf573d6000803e3d6000fd5b505050506040513d6020811015610fc557600080fd5b50519150836001600160a01b038116610fdb5750335b6001600160a01b03811630141561102c57600088121561102c5760405162461bcd60e51b815260040180806020018281038252602d815260200180612f8a602d913960400191505060405180910390fd5b611034612df6565b60408051610160810182528951815260208082018c90528a0151918101919091526001600160a01b03881660608201526080810189600260200201518152602001836001600160a01b0316815260200160008152602001600081526020016000815260200160008152602001600015158152509050806001600086815260200190815260200160002060008201518160000155602082015181600101556040820151816002015560608201518160030160006101000a8154816001600160a01b0302191690836001600160a01b031602179055506080820151816004015560a08201518160050160006101000a8154816001600160a01b0302191690836001600160a01b0316021790555060c0820151816006015560e082015181600701556101008201518160080155610120820151816009015561014082015181600a0160006101000a81548160ff021916908315150217905550905050600260009054906101000a90046001600160a01b03166001600160a01b031684600460009054906101000a90046001600160a01b03166001600160a01b03167ffc38e03bef8d47e8c970c106660459b8a9db8eb045bd1281ef4cc50c16e032278d8d8d8d898b604051808060200187815260200186600360200280838360005b8381101561122557818101518382015260200161120d565b50505050905001856001600160a01b03166001600160a01b03168152602001846001600160a01b03166001600160a01b03168152602001836001600160a01b03166001600160a01b03168152602001828103825288818151815260200191508051906020019080838360005b838110156112a9578181015183820152602001611291565b50505050905090810190601f1680156112d65780820380516001836020036101000a031916815260200191505b5097505050505050505060405180910390a450506040805180820182524381526004546001600160a01b0390811660208084019182526002548316600090815280825285812088825290915293909320915182559151600190910180546001600160a01b03191691909216179055509695505050505050565b60009081526001602052604090206004015490565b6000818152600160205260408120600a81015460ff166113b55760405162461bcd60e51b815260040180806020018281038252602f815260200180612e7c602f913960400191505060405180910390fd5b60058101546001600160a01b03163014156113de5760088101546113de57600281015460088201555b600281018054600090915591508115610c8b576004805460408051638da5cb5b60e01b815290516001600160a01b0390921692638da5cb5b928282019260209290829003018186803b15801561143357600080fd5b505afa158015611447573d6000803e3d6000fd5b505050506040513d602081101561145d57600080fd5b5051600582015460048054604080516331a4b2ed60e11b81529283018790526001600160a01b039384166024840152908316604483015251919092169163634965da9160648083019260209291908290030181600087803b1580156114c157600080fd5b505af11580156114d5573d6000803e3d6000fd5b505050506040513d60208110156114eb57600080fd5b50516114f657600080fd5b60058101546004546040805185815290516001600160a01b0393841693879316917f7dd55ea53ce2c347b544c257b778e1dd6638f232fa6b94320e740440e72b4b87919081900360200190a450919050565b6004546001600160a01b031681565b6000602081815292815260408082209093529081522080546001909101546001600160a01b031682565b336000908152602081815260408083208484529091528120600101546001600160a01b0316806115b557600091505061163b565b836001600160a01b03166370a08231826040518263ffffffff1660e01b815260040180826001600160a01b03166001600160a01b0316815260200191505060206040518083038186803b15801561160b57600080fd5b505afa15801561161f573d6000803e3d6000fd5b505050506040513d602081101561163557600080fd5b50519150505b92915050565b6005546001600160a01b0316331461168e576040805162461bcd60e51b815260206004820152601c6024820152600080516020612f0b833981519152604482015290519081900360640190fd5b6000838152600160205260409020600a81015460ff166116df5760405162461bcd60e51b815260040180806020018281038252602f815260200180612e7c602f913960400191505060405180910390fd5b61170e826040518060800160405280605d8152602001612fb7605d91396006840154919063ffffffff612ba116565b60068201558115610aae576117ae8383600460009054906101000a90046001600160a01b03166001600160a01b031663e1758bd86040518163ffffffff1660e01b815260040160206040518083038186803b15801561176c57600080fd5b505afa158015611780573d6000803e3d6000fd5b505050506040513d602081101561179657600080fd5b50516001600160a01b0316919063ffffffff612c3816565b6004546040805184815290516001600160a01b038087169388939116917f13f7471cab9806ac4ff5d80ae879babfbf1081e240d05c4450b75f69c626cb2e9181900360200190a450505050565b6000908152600160205260409020600301546001600160a01b031690565b336000908152602081815260408083208484528252808320600101548151638da5cb5b60e01b8152915185936001600160a01b03909216928392638da5cb5b92600480840193829003018186803b15801561187357600080fd5b505afa158015611887573d6000803e3d6000fd5b505050506040513d602081101561189d57600080fd5b505160408051639be2faed60e01b81523060048201526001600160a01b03848116602483015291519190921691639be2faed916044808301926020929190829003018186803b1580156118ef57600080fd5b505afa158015611903573d6000803e3d6000fd5b505050506040513d602081101561191957600080fd5b5051611967576040805162461bcd60e51b81526020600482015260186024820152771cd8da195b59481a5cc81b9bdd081c9959da5cdd195c995960421b604482015290519081900360640190fd5b61196f612e64565b5033600090815260208181526040808320878452825291829020825180840190935280548352600101546001600160a01b03169082018190526119b6576000935050611aa3565b80602001516001600160a01b03166389ae1c906040518163ffffffff1660e01b815260040160206040518083038186803b1580156119f357600080fd5b505afa158015611a07573d6000803e3d6000fd5b505050506040513d6020811015611a1d57600080fd5b505181516040805163277166bf60e11b81526001600160a01b038a81166004830152602482019390935290519190921691634ee2cd7e916044808301926020929190829003018186803b158015611a7357600080fd5b505afa158015611a87573d6000803e3d6000fd5b505050506040513d6020811015611a9d57600080fd5b50519350505b505092915050565b3360009081526020818152604080832085845290915281206001015483906001600160a01b0316611b18576040805162461bcd60e51b81526020600482015260126024820152716f6e6c7920566f74696e674d616368696e6560701b604482015290519081900360640190fd5b6000848152600160205260409020600a015460ff1615611b3757600080fd5b6000848152600160205260409020600501546001600160a01b0316611b5b57600080fd5b8260011415611b84576000848152600160208190526040909120600a01805460ff191690911790555b60045460408051858152905186926001600160a01b0316917fd2632e80f5364f02aded1c64e8a04637b7c8bb9c2db2bedf4b6ac47c013acbc0919081900360200190a35060019392505050565b60009081526001602052604090206002015490565b6004546001600160a01b031615611c44576040805162461bcd60e51b815260206004820152601b60248201527f63616e2062652063616c6c6564206f6e6c79206f6e652074696d650000000000604482015290519081900360640190fd5b6001600160a01b038416611c97576040805162461bcd60e51b81526020600482015260156024820152746176617461722063616e6e6f74206265207a65726f60581b604482015290519081900360640190fd5b6001600160a01b038316611cf2576040805162461bcd60e51b815260206004820152601c60248201527f766f74696e674d616368696e652063616e6e6f74206265207a65726f00000000604482015290519081900360640190fd5b600480546001600160a01b039586166001600160a01b031991821617909155600280549486169482169490941790935560039190915560058054919093169116179055565b336000908152602081815260408083208484528252808320600101548151638da5cb5b60e01b8152915185936001600160a01b03909216928392638da5cb5b92600480840193829003018186803b158015611d9157600080fd5b505afa158015611da5573d6000803e3d6000fd5b505050506040513d6020811015611dbb57600080fd5b505160408051639be2faed60e01b81523060048201526001600160a01b03848116602483015291519190921691639be2faed916044808301926020929190829003018186803b158015611e0d57600080fd5b505afa158015611e21573d6000803e3d6000fd5b505050506040513d6020811015611e3757600080fd5b5051611e85576040805162461bcd60e51b81526020600482015260186024820152771cd8da195b59481a5cc81b9bdd081c9959da5cdd195c995960421b604482015290519081900360640190fd5b611e8d612e64565b5033600090815260208181526040808320878452825291829020825180840190935280548352600101546001600160a01b0316908201819052611ed4576000935050611fb8565b80602001516001600160a01b03166389ae1c906040518163ffffffff1660e01b815260040160206040518083038186803b158015611f1157600080fd5b505afa158015611f25573d6000803e3d6000fd5b505050506040513d6020811015611f3b57600080fd5b5051815160408051630981b24d60e41b81526004810192909252516001600160a01b039092169163981b24d091602480820192602092909190829003018186803b158015611f8857600080fd5b505afa158015611f9c573d6000803e3d6000fd5b505050506040513d6020811015611fb257600080fd5b50519350505b5050919050565b60009081526001602052604090205490565b3360009081526020818152604080832084845290915281206001015482906001600160a01b031661203e576040805162461bcd60e51b81526020600482015260126024820152716f6e6c7920566f74696e674d616368696e6560701b604482015290519081900360640190fd5b336000908152602081815260408083208684529091529020600101546001600160a01b03168061207257600092505061216a565b806001600160a01b0316638da5cb5b6040518163ffffffff1660e01b815260040160206040518083038186803b1580156120ab57600080fd5b505afa1580156120bf573d6000803e3d6000fd5b505050506040513d60208110156120d557600080fd5b50516040805163b9a04cdd60e01b81526001600160a01b038a8116600483015289811660248301526044820189905284811660648301529151919092169163b9a04cdd9160848083019260209291908290030181600087803b15801561213a57600080fd5b505af115801561214e573d6000803e3d6000fd5b505050506040513d602081101561216457600080fd5b50519250505b50949350505050565b6005546001600160a01b031633146121c0576040805162461bcd60e51b815260206004820152601c6024820152600080516020612f0b833981519152604482015290519081900360640190fd5b6000838152600160205260409020600a81015460ff166122115760405162461bcd60e51b815260040180806020018281038252602f815260200180612e7c602f913960400191505060405180910390fd5b61224082604051806080016040528060608152602001612eab606091396007840154919063ffffffff612ba116565b60078201556004805460408051638da5cb5b60e01b815290516001600160a01b0390921692638da5cb5b928282019260209290829003018186803b15801561228757600080fd5b505afa15801561229b573d6000803e3d6000fd5b505050506040513d60208110156122b157600080fd5b5051600480546040805163757cca5960e11b81529283018690526001600160a01b03878116602485015291821660448401525192169163eaf994b2916064808201926020929091908290030181600087803b15801561230f57600080fd5b505af1158015612323573d6000803e3d6000fd5b505050506040513d602081101561233957600080fd5b505161234457600080fd5b8115610aae576004546040805184815290516001600160a01b038087169388939116917feab8bc4bf2fd6ce5634b8e75023e0e48367e68249ce2aa2c0ef7c0efe5648bee9181900360200190a450505050565b6000818152600160205260408120600a81015460ff166123e85760405162461bcd60e51b815260040180806020018281038252602f815260200180612e7c602f913960400191505060405180910390fd5b60058101546001600160a01b031630141561241b576007810154612416576001810180546007830155600090555b610c8b565b600181018054600091829055925082131561253a576004805460408051638da5cb5b60e01b815290516001600160a01b0390921692638da5cb5b928282019260209290829003018186803b15801561247257600080fd5b505afa158015612486573d6000803e3d6000fd5b505050506040513d602081101561249c57600080fd5b50516005820154600480546040805163757cca5960e11b81529283018790526001600160a01b039384166024840152908316604483015251919092169163eaf994b29160648083019260209291908290030181600087803b15801561250057600080fd5b505af1158015612514573d6000803e3d6000fd5b505050506040513d602081101561252a57600080fd5b505161253557600080fd5b61264e565b600082121561264e576004805460408051638da5cb5b60e01b815290516001600160a01b0390921692638da5cb5b928282019260209290829003018186803b15801561258557600080fd5b505afa158015612599573d6000803e3d6000fd5b505050506040513d60208110156125af57600080fd5b505160058201546004805460408051630dd29a4f60e31b81526000888103948201949094526001600160a01b0394851660248201529184166044830152519290931692636e94d2789260648083019360209383900390910190829087803b15801561261957600080fd5b505af115801561262d573d6000803e3d6000fd5b505050506040513d602081101561264357600080fd5b505161264e57600080fd5b8115610c8b5760058101546004546040805185815290516001600160a01b0393841693879316917feab8bc4bf2fd6ce5634b8e75023e0e48367e68249ce2aa2c0ef7c0efe5648bee919081900360200190a450919050565b6000908152600160205260409020600a015460ff1690565b3360009081526020818152604080832084845290915281206001015482906001600160a01b031661272b576040805162461bcd60e51b81526020600482015260126024820152716f6e6c7920566f74696e674d616368696e6560701b604482015290519081900360640190fd5b336000908152602081815260408083208684529091529020600101546001600160a01b03168061275f57600092505061284f565b806001600160a01b0316638da5cb5b6040518163ffffffff1660e01b815260040160206040518083038186803b15801561279857600080fd5b505afa1580156127ac573d6000803e3d6000fd5b505050506040513d60208110156127c257600080fd5b50516040805163757cca5960e11b8152600481018990526001600160a01b03888116602483015284811660448301529151919092169163eaf994b29160648083019260209291908290030181600087803b15801561281f57600080fd5b505af1158015612833573d6000803e3d6000fd5b505050506040513d602081101561284957600080fd5b50519250505b509392505050565b600160208190526000918252604090912080549181015460028201546003830154600484015460058501546006860154600787015460088801546009890154600a90990154979896976001600160a01b039687169795969094169492939192909160ff168b565b6005546001600160a01b031681565b6005546001600160a01b0316331461291a576040805162461bcd60e51b815260206004820152601c6024820152600080516020612f0b833981519152604482015290519081900360640190fd5b6000838152600160205260409020600a81015460ff1661296b5760405162461bcd60e51b815260040180806020018281038252602f815260200180612e7c602f913960400191505060405180910390fd5b61299a826040518060800160405280605f8152602001612f2b605f91396009840154919063ffffffff612ba116565b600982015560038101546001600160a01b031615610aae578115610aae5760038101546129d7906001600160a01b0316848463ffffffff612c3816565b6004546040805184815290516001600160a01b038087169388939116917f5a66e28cdcd3bc22082d9f07be2b6bed5f50f349e5d89f655d750ecdd19883749181900360200190a450505050565b60035481565b6000908152600160208190526040909120015490565b3360009081526020818152604080832084845290915281206001015482906001600160a01b0316612aad576040805162461bcd60e51b81526020600482015260126024820152716f6e6c7920566f74696e674d616368696e6560701b604482015290519081900360640190fd5b336000908152602081815260408083208684529091529020600101546001600160a01b031680612ae157600092505061284f565b806001600160a01b0316638da5cb5b6040518163ffffffff1660e01b815260040160206040518083038186803b158015612b1a57600080fd5b505afa158015612b2e573d6000803e3d6000fd5b505050506040513d6020811015612b4457600080fd5b505160408051630dd29a4f60e31b8152600481018990526001600160a01b038881166024830152848116604483015291519190921691636e94d2789160648083019260209291908290030181600087803b15801561281f57600080fd5b60008184841115612c305760405162461bcd60e51b81526004018080602001828103825283818151815260200191508051906020019080838360005b83811015612bf5578181015183820152602001612bdd565b50505050905090810190601f168015612c225780820380516001836020036101000a031916815260200191505b509250505060405180910390fd5b505050900390565b612c4a836001600160a01b0316612dba565b612c5357600080fd5b604080518082018252601981527f7472616e7366657228616464726573732c75696e74323536290000000000000060209182015281516001600160a01b0385811660248301526044808301869052845180840390910181526064909201845291810180516001600160e01b031663a9059cbb60e01b1781529251815160009460609489169392918291908083835b60208310612d005780518252601f199092019160209182019101612ce1565b6001836020036101000a0380198251168184511680821785525050505050509050019150506000604051808303816000865af19150503d8060008114612d62576040519150601f19603f3d011682016040523d82523d6000602084013e612d67565b606091505b509150915081612d7657600080fd5b80511580612daa575080516020148015612daa575080601f81518110612d9857fe5b01602001516001600160f81b03191615155b612db357600080fd5b5050505050565b6000813f7fc5d2460186f7233c927e7db2dcc703c0e500b653ca82273b7bfad8045d85a4708115801590612dee5750808214155b949350505050565b60405180610160016040528060008152602001600081526020016000815260200160006001600160a01b031681526020016000815260200160006001600160a01b03168152602001600081526020016000815260200160008152602001600081526020016000151581525090565b60408051808201909152600080825260208201529056fe70726f706f73616c20776173206e6f742061636365707465642062792074686520766f74696e67206d616368696e6563616e6e6f742072656465656d206d6f72652072657075746174696f6e207468616e20616c6c6f636174656420666f7220746869732070726f706f73616c206f72206e6f2072656465656d52657075746174696f6e207761732063616c6c65646d73672e73656e646572206973206e6f7420617574686f72697a65640000000063616e6e6f742072656465656d206d6f726520746f6b656e73207468616e20616c6c6f636174656420666f7220746869732070726f706f73616c206f72206e6f2072656465656d45787465726e616c546f6b656e207761732063616c6c65646e6567617469766520726570206368616e6765206e6f7420616c6c6f77656420666f722074686973206361736563616e6e6f742072656465656d206d6f726520746f6b656e73207468616e20616c6c6f636174656420666f7220746869732070726f706f73616c206f72206e6f2072656465656d4e6174697665546f6b656e207761732063616c6c656463616e6e6f742072656465656d206d6f7265204574686572207468616e20616c6c6f636174656420666f7220746869732070726f706f73616c206f72206e6f2072656465656d4574686572207761732063616c6c6564a265627a7a72315820a838857e3969c1a38ad71bd4dd1074af7036d38e38c7bbe8b33572eaf1962a7b64736f6c63430005110032608060405234801561001057600080fd5b506124f4806100206000396000f3fe608060405234801561001057600080fd5b50600436106100ea5760003560e01c8063ae0a97391161008c578063cffc84ba11610066578063cffc84ba146103fe578063d5c8cc5214610406578063db006a751461040e578063eba9e6331461042b576100ea565b8063ae0a973914610339578063bd9317d914610358578063c4d66de8146103d8576100ea565b8063516b9d37116100c8578063516b9d37146101fb5780635d474a00146102f0578063a65cd35a146102f8578063ab4c981c1461031c576100ea565b80630121b93f146100ef578063302a2a461461012057806332ed5b1214610164575b600080fd5b61010c6004803603602081101561010557600080fd5b5035610448565b604080519115158252519081900360200190f35b61013d6004803603602081101561013657600080fd5b50356108b2565b6040805193845260208401929092526001600160a01b031682820152519081900360600190f35b6101816004803603602081101561017a57600080fd5b50356108db565b604080519d8e5260208e019c909c528c8c019a909a5260608c019890985260808b019690965260a08a01949094526001600160a01b0392831660c08a015260e08901919091526101008801526101208701919091526101408601919091526101608501919091521661018083015251908190036101a00190f35b6102de60048036036101a081101561021257600080fd5b81019060208101813564010000000081111561022d57600080fd5b82018360208201111561023f57600080fd5b8035906020019184600183028401116401000000008311171561026157600080fd5b9193909282359260208101926001600160a01b0360808301351692909160c081019060a0013564010000000081111561029957600080fd5b8201836020820111156102ab57600080fd5b803590602001918460208302840111640100000000831117156102cd57600080fd5b919350915060a0810135151561094d565b60408051918252519081900360200190f35b6102de610f15565b610300610f1c565b604080516001600160a01b039092168252519081900360200190f35b6102de6004803603602081101561033257600080fd5b5035610f2b565b6103566004803603602081101561034f57600080fd5b5035611050565b005b6102de6004803603606081101561036e57600080fd5b8135919081019060408101602082013564010000000081111561039057600080fd5b8201836020820111156103a257600080fd5b803590602001918460018302840111640100000000831117156103c457600080fd5b9193509150356001600160a01b03166113e1565b610356600480360360208110156103ee57600080fd5b50356001600160a01b0316611604565b6102de6116c9565b6102de6116cf565b6103566004803603602081101561042457600080fd5b50356116d4565b6103566004803603602081101561044157600080fd5b5035611d20565b600081815260016020819052604082200154806104a8576040805162461bcd60e51b81526020600482015260196024820152781cdd59d9d95cdd1a5bdb88191bd95cc81b9bdd08195e1a5cdd603a1b604482015290519081900360640190fd5b6104b181611d20565b60035460408051632d77bef360e11b815290516000926001600160a01b031691635aef7de6916004808301926020929190829003018186803b1580156104f657600080fd5b505afa15801561050a573d6000803e3d6000fd5b505050506040513d602081101561052057600080fd5b50516040805163089ae1c960e41b815290519192506000916001600160a01b038416916389ae1c90916004808301926020929190829003018186803b15801561056857600080fd5b505afa15801561057c573d6000803e3d6000fd5b505050506040513d602081101561059257600080fd5b50516000848152602081815260409182902060080154825163277166bf60e11b8152336004820152602481019190915291516001600160a01b0390931692634ee2cd7e926044808201939291829003018186803b1580156105f257600080fd5b505afa158015610606573d6000803e3d6000fd5b505050506040513d602081101561061c57600080fd5b505190508061065c5760405162461bcd60e51b815260040180806020018281038252602f8152602001806122cf602f913960400191505060405180910390fd5b6000838152602081905260409020600581015442106106b6576040805162461bcd60e51b815260206004820152601160248201527018dbdb5c195d1a5d1a5bdb88195b991959607a1b604482015290519081900360640190fd5b6000868152600160209081526040808320338452600381019092529091205415610727576040805162461bcd60e51b815260206004820181905260248201527f616c726561647920766f746564206f6e20746869732073756767657374696f6e604482015290519081900360640190fd5b600682015433600090815260108401602052604090205410610790576040805162461bcd60e51b815260206004820152601e60248201527f657863656564206e756d626572206f6620766f74657320616c6c6f7765640000604482015290519081900360640190fd5b3360009081526010830160205260409020546107b390600163ffffffff611e4716565b3360009081526010840160205260409020558054156108045780546000908152600f830160205260409020546107f090600163ffffffff611eaa16565b81546000908152600f840160205260409020555b8054610816908463ffffffff611e4716565b8082556000908152600f8301602052604090205461083b90600163ffffffff611e4716565b81546000908152600f840160209081526040808320939093553382526003840190522083905561086b8588611eec565b6040805184815290513391899188917fd7d2b1fb5e87b2ff063bc53d745b1f45a5cdbb2f9b277888d590021844fd483e919081900360200190a45060019695505050505050565b60016020819052600091825260409091208054918101546002909101546001600160a01b031683565b6000602081905290815260409020805460028201546003830154600484015460058501546006860154600787015460088801546009890154600a8a0154600b8b0154600c8c0154600e909c01549a9b999a98999798969795966001600160a01b0395861696949593949293919291168d565b60008383358061095a5750425b428110156109995760405162461bcd60e51b815260040180806020018281038252602f81526020018061235d602f913960400191505060405180910390fd5b60648211156109d95760405162461bcd60e51b815260040180806020018281038252602a815260200180612473602a913960400191505060405180910390fd5b6040850135602086013510610a1f5760405162461bcd60e51b81526004018080602001828103825260278152602001806123e86027913960400191505060405180910390fd5b6020850135811115610a625760405162461bcd60e51b815260040180806020018281038252602981526020018061240f6029913960400191505060405180910390fd5b6060850135610aa25760405162461bcd60e51b815260040180806020018281038252603181526020018061227d6031913960400191505060405180910390fd5b604085013560808601351115610ae95760405162461bcd60e51b815260040180806020018281038252603b815260200180612438603b913960400191505060405180910390fd5b60808501358110610b2b5760405162461bcd60e51b815260040180806020018281038252603b81526020018061238c603b913960400191505060405180910390fd5b604089013515610b90576001600160a01b038816610b90576040805162461bcd60e51b815260206004820152601c60248201527f657874656e616c20746f6b656e2063616e6e6f74206265207a65726f00000000604482015290519081900360640190fd5b60008a1215610bd05760405162461bcd60e51b815260040180806020018281038252603b8152602001806122fe603b913960400191505060405180910390fd5b6000805b83811015610c0b57610c01898983818110610beb57fe5b9050602002013583611e4790919063ffffffff16565b9150600101610bd4565b5080606414610c61576040805162461bcd60e51b815260206004820152601f60248201527f746f74616c20726577617264732073706c6974206973206e6f74203130302500604482015290519081900360640190fd5b6003546040516310ca123760e21b8152602481018d90526001600160a01b039091169063432848dc908f908f908f908f908f908790339060048101908190604401866060808284376000838201526001600160a01b03808916601f909201601f19169093019081528683166020820152918516604083015250828103606090810183528101899052608001898980828437600081840152601f19601f82011690508083019250505098505050505050505050602060405180830381600087803b158015610d2d57600080fd5b505af1158015610d41573d6000803e3d6000fd5b505050506040513d6020811015610d5757600080fd5b50516000818152602081905260409020848155909450610d7b906001018989612214565b506000848152602081815260408083206002810186905589830135600382015589820135600582015560608a0135600682015560808a01356004820155600981018f90558d35600b820155918d0135600a8301558c0135600c820155600801558415610e03576000848152602081905260409020600e0180546001600160a01b031916331790555b600084815260208181526040918290206003808201546004830154600584015460068501549354600e86015488518c81529889018b9052606089018590526080890184905260a0890183905260c089018690526001600160a01b0391821660e08a018190529116610100890181905261012097890188815260019097018054988a018990528d997fcf5b519fd1c8161005ac36adf44ad5e13159b7931b236d11507e30cb053c20f0998e9992988e98979695909490939092916101408301908b908015610eef57602002820191906000526020600020905b815481526020019060010190808311610edb575b50509a505050505050505050505060405180910390a25050509998505050505050505050565b6276a70081565b6003546001600160a01b031681565b60008181526001602081905260408220015480610f8b576040805162461bcd60e51b81526020600482015260196024820152781cdd59d9d95cdd1a5bdb88191bd95cc81b9bdd08195e1a5cdd603a1b604482015290519081900360640190fd5b60008181526020818152604091829020600d01805483518184028101840190945280845260609392830182828015610fe257602002820191906000526020600020905b815481526020019060010190808311610fce575b50939450600093505050505b8151811015611048576000858152600160208190526040822054845190929085908590811061101957fe5b60200260200101518152602001908152602001600020600001541115611040576001909301925b600101610fee565b505050919050565b6000818152602081905260409020600501544290611077906276a70063ffffffff611e4716565b106110c9576040805162461bcd60e51b815260206004820152601d60248201527f726564656d7074696f6e20706572696f64206973207374696c6c206f6e000000604482015290519081900360640190fd5b600081815260208190526040902060060154611126576040805162461bcd60e51b81526020600482015260176024820152761c1c9bdc1bdcd85b08191bd95cc81b9bdd08195e1a5cdd604a1b604482015290519081900360640190fd5b8061116d576040805162461bcd60e51b815260206004820152601260248201527170726f706f73616c4964206973207a65726f60701b604482015290519081900360640190fd5b6003546040805163d8145e2d60e01b8152600481018490529051600092839283926001600160a01b039092169163d8145e2d9160248082019261016092909190829003018186803b1580156111c157600080fd5b505afa1580156111d5573d6000803e3d6000fd5b505050506040513d6101608110156111ec57600080fd5b5060c08101516101008201516101209092015160035460408051632d77bef360e11b815290519397509395509093506000926001600160a01b0390911691635aef7de691600480820192602092909190829003018186803b15801561125057600080fd5b505afa158015611264573d6000803e3d6000fd5b505050506040513d602081101561127a57600080fd5b505160035460408051636f4d4abd60e11b8152600481018990526001600160a01b03808516602483015260448201879052915193945091169163de9a957a9160648082019260009290919082900301818387803b1580156112da57600080fd5b505af11580156112ee573d6000803e3d6000fd5b50506003546040805163156460d960e11b8152600481018a90526001600160a01b038681166024830152604482018990529151919092169350632ac8c1b29250606480830192600092919082900301818387803b15801561134e57600080fd5b505af1158015611362573d6000803e3d6000fd5b505060035460408051630dd14c3160e31b8152600481018a90526001600160a01b038681166024830152604482018a90529151919092169350636e8a61889250606480830192600092919082900301818387803b1580156113c257600080fd5b505af11580156113d6573d6000803e3d6000fd5b505050505050505050565b6000848152602081905260408120600e01546001600160a01b031615611468576000858152602081905260409020600e01546001600160a01b03163314611468576040805162461bcd60e51b81526020600482015260166024820152751bdb9b1e4818591b5a5b8818d85b881cdd59d9d95cdd60521b604482015290519081900360640190fd5b6000858152602081905260409020600201544210156114ce576040805162461bcd60e51b815260206004820152601b60248201527f636f6d7065746974696f6e206e6f742073746172746564207965740000000000604482015290519081900360640190fd5b600085815260208190526040902060040154421061151d5760405162461bcd60e51b815260040180806020018281038252602381526020018061249d6023913960400191505060405180910390fd5b60025461153190600163ffffffff611e4716565b600281905560009081526001602081905260408220018690556001600160a01b03831661155f575033611562565b50815b60028054600090815260016020908152604091829020830180546001600160a01b0319166001600160a01b038616908117909155925482518281529182018890529189917fd49d50e437830c78dfc56d998083bd2d5280b983038730ff7ca14c6a329dc549918a918a9181908101848480828437600083820152604051601f909101601f19169092018290039550909350505050a45050600254949350505050565b6003546001600160a01b031615611662576040805162461bcd60e51b815260206004820152601b60248201527f63616e2062652063616c6c6564206f6e6c79206f6e652074696d650000000000604482015290519081900360640190fd5b6001600160a01b0381166116a75760405162461bcd60e51b81526004018080602001828103825260248152602001806123396024913960400191505060405180910390fd5b600380546001600160a01b0319166001600160a01b0392909216919091179055565b60025481565b606481565b600081815260016020819052604090912001548061172e576040805162461bcd60e51b815260206004820152601260248201527170726f706f73616c4964206973207a65726f60701b604482015290519081900360640190fd5b600081815260208190526040902082611785576040805162461bcd60e51b815260206004820152601460248201527373756767657374696f6e4964206973207a65726f60601b604482015290519081900360640190fd5b428160050154106117dd576040805162461bcd60e51b815260206004820152601760248201527f636f6d7065746974696f6e206973207374696c6c206f6e000000000000000000604482015290519081900360640190fd5b600581015442906117f7906276a70063ffffffff611e4716565b11611849576040805162461bcd60e51b815260206004820152601960248201527f726564656d7074696f6e20706572696f64206973206f76657200000000000000604482015290519081900360640190fd5b600081600601541161189c576040805162461bcd60e51b81526020600482015260176024820152761c1c9bdc1bdcd85b08191bd95cc81b9bdd08195e1a5cdd604a1b604482015290519081900360640190fd5b6000838152600160205260409020600201546001600160a01b0316611908576040805162461bcd60e51b815260206004820152601f60248201527f73756767657374696f6e2077617320616c72656164792072656465656d656400604482015290519081900360640190fd5b6000838152600160205260408120600201546001600160a01b03169061192d85610f2b565b600d84015490915081106119725760405162461bcd60e51b81526004018080602001828103825260218152602001806122ae6021913960400191505060405180910390fd5b60008581526001602090815260408083206002810180546001600160a01b0319169055548352600f8601909152812054825b818401811080156119b55750855481105b156119f0576119e68660010182815481106119cc57fe5b906000526020600020015484611e4790919063ffffffff16565b92506001016119a4565b611a00838363ffffffff61207d16565b8654600d8801549194506000911015611a8757600d87015491505b8654821015611a5d57611a50876001018381548110611a3657fe5b906000526020600020015482611e4790919063ffffffff16565b6001909201919050611a1b565b600d870154611a8490611a7790839063ffffffff61207d16565b859063ffffffff611e4716565b93505b6000611ab16064611aa5878b600c01546120bf90919063ffffffff16565b9063ffffffff61207d16565b60035460408051636f4d4abd60e11b8152600481018d90526001600160a01b038b8116602483015260448201859052915193945091169163de9a957a9160648082019260009290919082900301818387803b158015611b0f57600080fd5b505af1158015611b23573d6000803e3d6000fd5b50505050611b436064611aa5878b600901546120bf90919063ffffffff16565b6003546040805163c4a17ec960e01b8152600481018d90526001600160a01b038b8116602483015260448201859052915193945091169163c4a17ec99160648082019260009290919082900301818387803b158015611ba157600080fd5b505af1158015611bb5573d6000803e3d6000fd5b50505050611bd56064611aa5878b600a01546120bf90919063ffffffff16565b6003546040805163156460d960e11b8152600481018d90526001600160a01b038b81166024830152604482018590529151939450911691632ac8c1b29160648082019260009290919082900301818387803b158015611c3357600080fd5b505af1158015611c47573d6000803e3d6000fd5b50505050611c676064611aa5878b600b01546120bf90919063ffffffff16565b60035460408051630dd14c3160e31b8152600481018d90526001600160a01b038b81166024830152604482018590529151939450911691636e8a61889160648082019260009290919082900301818387803b158015611cc557600080fd5b505af1158015611cd9573d6000803e3d6000fd5b50506040805188815290518d93508c92507febd129592de98831789a95ee9465fa6d4c6cf79d4788ac8d7effc6c8205768d69181900360200190a350505050505050505050565b6000818152602081905260409020600301544211611d85576040805162461bcd60e51b815260206004820152601d60248201527f766f74696e6720706572696f64206e6f74207374617274656420796574000000604482015290519081900360640190fd5b600081815260208190526040902060060154611de2576040805162461bcd60e51b81526020600482015260176024820152761c1c9bdc1bdcd85b08191bd95cc81b9bdd08195e1a5cdd604a1b604482015290519081900360640190fd5b600081815260208190526040902060080154611e4457600081815260208181526040918290204360089091018190558251908152915183927f4169469c5791d1acd84c8c616355c70799ea61c4b680d68e2587e7693259233992908290030190a25b50565b600082820183811015611ea1576040805162461bcd60e51b815260206004820152601b60248201527f536166654d6174683a206164646974696f6e206f766572666c6f770000000000604482015290519081900360640190fd5b90505b92915050565b6000611ea183836040518060400160405280601e81526020017f536166654d6174683a207375627472616374696f6e206f766572666c6f770000815250612118565b6000828152602081905260408120600d810180549154909290821015611f60575060005b81811015611f465783838281548110611f2557fe5b90600052602060002001541415611f3e57505050612079565b600101611f10565b825460018101845560008481526020902001849055612075565b506000805b6000868152602081905260409020548210156120145760016000858381548110611f8b57fe5b906000526020600020015481526020019081526020016000206000015460016000868581548110611fb857fe5b90600052602060002001548152602001908152602001600020600001541015611fe2575080612009565b84848381548110611fef57fe5b906000526020600020015414156120095750505050612079565b600190910190611f65565b6000858152600160208190526040822054865490929087908590811061203657fe5b90600052602060002001548152602001908152602001600020600001541015612073578484828154811061206657fe5b6000918252602090912001555b505b5050505b5050565b6000611ea183836040518060400160405280601a81526020017f536166654d6174683a206469766973696f6e206279207a65726f0000000000008152506121af565b6000826120ce57506000611ea4565b828202828482816120db57fe5b0414611ea15760405162461bcd60e51b81526004018080602001828103825260218152602001806123c76021913960400191505060405180910390fd5b600081848411156121a75760405162461bcd60e51b81526004018080602001828103825283818151815260200191508051906020019080838360005b8381101561216c578181015183820152602001612154565b50505050905090810190601f1680156121995780820380516001836020036101000a031916815260200191505b509250505060405180910390fd5b505050900390565b600081836121fe5760405162461bcd60e51b815260206004820181815283516024840152835190928392604490910191908501908083836000831561216c578181015183820152602001612154565b50600083858161220a57fe5b0495945050505050565b82805482825590600052602060002090810192821561224f579160200282015b8281111561224f578235825591602001919060010190612234565b5061225b92915061225f565b5090565b61227991905b8082111561225b5760008155600101612265565b9056fe6d61784e756d6265724f66566f746573506572566f7465722073686f756c642062652067726561746572207468616e203073756767657374696f6e206973206e6f7420696e2077696e6e657273206c697374766f74657220686164206e6f2072657075746174696f6e207768656e20736e617073686f74207761732074616b656e6e656761746976652072657075746174696f6e206368616e6765206973206e6f7420616c6c6f77656420666f72206120636f6d7065746974696f6e636f6e747269627574696f6e5265776172644578742063616e6e6f74206265207a65726f737461727454696d652073686f756c642062652067726561746572207468616e2070726f706f73696e672074696d6573756767657374696f6e73456e6454696d652073686f756c64206265206c61746572207468616e2070726f706f73616c2073746172742074696d65536166654d6174683a206d756c7469706c69636174696f6e206f766572666c6f77766f74696e672073746172742074696d652067726561746572207468616e20656e642074696d65766f74696e672073746172742074696d6520736d616c6c6572207468616e2073746172742074696d6573756767657374696f6e73456e6454696d652073686f756c64206265206561726c696572207468616e2070726f706f73616c20656e642074696d656e756d626572206f662077696e6e6572732067726561746572207468616e206d617820616c6c6f77656473756767657374696f6e73207375626d697373696f6e2074696d65206973206f766572a265627a7a72315820bb9c19cdc9dcc7e9e31cced6b74346fa5914fb8d0708eabac231739161d808e864736f6c63430005110032566f746520706172616d7320747970652073706563696669656420646f6573206e6f74206578697374a265627a7a7231582067538fea818f91abf6e75a6e679d6c026899ca6c90d10f67af7a1374f911735264736f6c63430005110032",
  "linkReferences": {},
  "deployedLinkReferences": {}
}