{
  "_format": "hh-sol-artifact-1",
  "contractName": "SimpleSchemeConstraints",
  "sourceName": "contracts/schemes/SimpleSchemeConstraints.sol",
  "abi": [
    {
      "constant": true,
      "inputs": [
        {
          "internalType": "uint256",
          "name": "",
          "type": "uint256"
        }
      ],
      "name": "contractsWhiteList",
      "outputs": [
        {
          "internalType": "address",
          "name": "",
          "type": "address"
        }
      ],
      "payable": false,
      "stateMutability": "view",
      "type": "function"
    },
    {
      "constant": true,
      "inputs": [
        {
          "internalType": "address",
          "name": "",
          "type": "address"
        }
      ],
      "name": "contractsWhiteListMap",
      "outputs": [
        {
          "internalType": "bool",
          "name": "",
          "type": "bool"
        }
      ],
      "payable": false,
      "stateMutability": "view",
      "type": "function"
    },
    {
      "constant": true,
      "inputs": [],
      "name": "descriptionHash",
      "outputs": [
        {
          "internalType": "string",
          "name": "",
          "type": "string"
        }
      ],
      "payable": false,
      "stateMutability": "view",
      "type": "function"
    },
    {
      "constant": true,
      "inputs": [],
      "name": "enableSendEth",
      "outputs": [
        {
          "internalType": "bool",
          "name": "",
          "type": "bool"
        }
      ],
      "payable": false,
      "stateMutability": "view",
      "type": "function"
    },
    {
      "constant": true,
      "inputs": [],
      "name": "getContractsWhiteList",
      "outputs": [
        {
          "internalType": "address[]",
          "name": "",
          "type": "address[]"
        }
      ],
      "payable": false,
      "stateMutability": "view",
      "type": "function"
    },
    {
      "constant": false,
      "inputs": [
        {
          "internalType": "address[]",
          "name": "_contractsWhiteList",
          "type": "address[]"
        },
        {
          "internalType": "string",
          "name": "_descriptionHash",
          "type": "string"
        },
        {
          "internalType": "bool",
          "name": "_enableSendEth",
          "type": "bool"
        }
      ],
      "name": "initialize",
      "outputs": [],
      "payable": false,
      "stateMutability": "nonpayable",
      "type": "function"
    },
    {
      "constant": true,
      "inputs": [],
      "name": "initialized",
      "outputs": [
        {
          "internalType": "bool",
          "name": "",
          "type": "bool"
        }
      ],
      "payable": false,
      "stateMutability": "view",
      "type": "function"
    },
    {
      "constant": false,
      "inputs": [
        {
          "internalType": "address[]",
          "name": "_contractsToCall",
          "type": "address[]"
        },
        {
          "internalType": "bytes[]",
          "name": "",
          "type": "bytes[]"
        },
        {
          "internalType": "uint256[]",
          "name": "_values",
          "type": "uint256[]"
        },
        {
          "internalType": "contract Avatar",
          "name": "",
          "type": "address"
        }
      ],
      "name": "isAllowedToCall",
      "outputs": [
        {
          "internalType": "bool",
          "name": "",
          "type": "bool"
        }
      ],
      "payable": false,
      "stateMutability": "nonpayable",
      "type": "function"
    },
    {
      "constant": false,
      "inputs": [
        {
          "internalType": "address[]",
          "name": "_contractsToCall",
          "type": "address[]"
        },
        {
          "internalType": "bytes[]",
          "name": "",
          "type": "bytes[]"
        },
        {
          "internalType": "uint256[]",
          "name": "_values",
          "type": "uint256[]"
        },
        {
          "internalType": "contract Avatar",
          "name": "",
          "type": "address"
        }
      ],
      "name": "isAllowedToPropose",
      "outputs": [
        {
          "internalType": "bool",
          "name": "",
          "type": "bool"
        }
      ],
      "payable": false,
      "stateMutability": "nonpayable",
      "type": "function"
    }
  ],
  "bytecode": "0x608060405234801561001057600080fd5b50610b00806100206000396000f3fe608060405234801561001057600080fd5b50600436106100935760003560e01c806385dcee931161006657806385dcee93146100e65780638f963f51146100fb578063b7f5923614610110578063da6f0d9b14610130578063e5e48a341461014357610093565b8063158ef93e14610098578063197b7d1e146100b65780633b7fdf09146100be57806364ab2de9146100d3575b600080fd5b6100a0610156565b6040516100ad91906109c8565b60405180910390f35b6100a061015f565b6100c661016d565b6040516100ad91906109b0565b6100a06100e13660046106e0565b6101d0565b6100ee61029b565b6040516100ad91906109d6565b61010e610109366004610796565b610328565b005b61012361011e36600461081c565b6103f3565b6040516100ad91906109a2565b6100a061013e3660046106e0565b61041a565b6100a06101513660046106ba565b6104cd565b60035460ff1681565b600354610100900460ff1681565b606060008054806020026020016040519081016040528092919081815260200182805480156101c557602002820191906000526020600020905b81546001600160a01b031681526001909101906020018083116101a7575b505050505090505b90565b6000805b8781101561028c57600260008a8a848181106101ec57fe5b905060200201602061020191908101906106ba565b6001600160a01b0316815260208101919091526040016000205460ff166102435760405162461bcd60e51b815260040161023a90610a07565b60405180910390fd5b600354610100900460ff166102845784848281811061025e57fe5b905060200201356000146102845760405162461bcd60e51b815260040161023a906109f7565b6001016101d4565b50600198975050505050505050565b60018054604080516020600284861615610100026000190190941693909304601f810184900484028201840190925281815292918301828280156103205780601f106102f557610100808354040283529160200191610320565b820191906000526020600020905b81548152906001019060200180831161030357829003601f168201915b505050505081565b60035460ff161561034b5760405162461bcd60e51b815260040161023a906109e7565b6003805460ff1916600117905560005b848110156103ba5760016002600088888581811061037557fe5b905060200201602061038a91908101906106ba565b6001600160a01b031681526020810191909152604001600020805460ff191691151591909117905560010161035b565b506103c7600086866104e2565b506103d460018484610545565b50600380549115156101000261ff001990921691909117905550505050565b6000818154811061040057fe5b6000918252602090912001546001600160a01b0316905081565b6000805b8781101561028c57600260008a8a8481811061043657fe5b905060200201602061044b91908101906106ba565b6001600160a01b0316815260208101919091526040016000205460ff166104845760405162461bcd60e51b815260040161023a90610a07565b600354610100900460ff166104c55784848281811061049f57fe5b905060200201356000146104c55760405162461bcd60e51b815260040161023a906109f7565b60010161041e565b60026020526000908152604090205460ff1681565b828054828255906000526020600020908101928215610535579160200282015b828111156105355781546001600160a01b0319166001600160a01b03843516178255602090920191600190910190610502565b506105419291506105bf565b5090565b828054600181600116156101000203166002900490600052602060002090601f016020900481019282601f106105865782800160ff198235161785556105b3565b828001600101855582156105b3579182015b828111156105b3578235825591602001919060010190610598565b506105419291506105e3565b6101cd91905b808211156105415780546001600160a01b03191681556001016105c5565b6101cd91905b8082111561054157600081556001016105e9565b803561060881610a8b565b92915050565b60008083601f84011261062057600080fd5b50813567ffffffffffffffff81111561063857600080fd5b60208301915083602082028301111561065057600080fd5b9250929050565b803561060881610aa2565b803561060881610aab565b60008083601f84011261067f57600080fd5b50813567ffffffffffffffff81111561069757600080fd5b60208301915083600182028301111561065057600080fd5b803561060881610ab4565b6000602082840312156106cc57600080fd5b60006106d884846105fd565b949350505050565b60008060008060008060006080888a0312156106fb57600080fd5b873567ffffffffffffffff81111561071257600080fd5b61071e8a828b0161060e565b9750975050602088013567ffffffffffffffff81111561073d57600080fd5b6107498a828b0161060e565b9550955050604088013567ffffffffffffffff81111561076857600080fd5b6107748a828b0161060e565b935093505060606107878a828b01610662565b91505092959891949750929550565b6000806000806000606086880312156107ae57600080fd5b853567ffffffffffffffff8111156107c557600080fd5b6107d18882890161060e565b9550955050602086013567ffffffffffffffff8111156107f057600080fd5b6107fc8882890161066d565b9350935050604061080f88828901610657565b9150509295509295909350565b60006020828403121561082e57600080fd5b60006106d884846106af565b6000610846838361084e565b505060200190565b61085781610a2a565b82525050565b600061086882610a1d565b6108728185610a21565b935061087d83610a17565b8060005b838110156108ab578151610895888261083a565b97506108a083610a17565b925050600101610881565b509495945050505050565b61085781610a35565b60006108ca82610a1d565b6108d48185610a21565b93506108e4818560208601610a51565b6108ed81610a81565b9093019392505050565b6000610904601783610a21565b7f63616e6e6f7420696e697469616c697a65207477696365000000000000000000815260200192915050565b600061093d601a83610a21565b7f73656e64696e6720657468206973206e6f7420616c6c6f776564000000000000815260200192915050565b6000610976601883610a21565b7f636f6e7472616374206e6f742077686974656c69737465640000000000000000815260200192915050565b60208101610608828461084e565b602080825281016109c1818461085d565b9392505050565b6020810161060882846108b6565b602080825281016109c181846108bf565b60208082528101610608816108f7565b6020808252810161060881610930565b6020808252810161060881610969565b60200190565b5190565b90815260200190565b600061060882610a45565b151590565b600061060882610a2a565b6001600160a01b031690565b60005b83811015610a6c578181015183820152602001610a54565b83811115610a7b576000848401525b50505050565b601f01601f191690565b610a9481610a2a565b8114610a9f57600080fd5b50565b610a9481610a35565b610a9481610a3a565b610a94816101cd56fea365627a7a723158206c8721c8489e9311134a07e0962e027894deca8036d04cd93ecd8dd09f4906976c6578706572696d656e74616cf564736f6c63430005110040",
  "linkReferences": {},
  "deployedLinkReferences": {}
}